{
    "contractName": "firstSeed",
    "abi": [
        {
            "anonymous": false,
            "inputs": [
                {
                    "indexed": false,
                    "internalType": "uint32",
                    "name": "productId",
                    "type": "uint32"
                }
            ],
            "name": "TransferOwnership",
            "type": "event"
        },
        {
            "inputs": [
                {
                    "internalType": "string",
                    "name": "_name",
                    "type": "string"
                },
                {
                    "internalType": "string",
                    "name": "_pass",
                    "type": "string"
                },
                {
                    "internalType": "address",
                    "name": "_pAdd",
                    "type": "address"
                },
                {
                    "internalType": "string",
                    "name": "_pType",
                    "type": "string"
                }
            ],
            "name": "addParticipant",
            "outputs": [
                {
                    "internalType": "uint32",
                    "name": "",
                    "type": "uint32"
                }
            ],
            "stateMutability": "nonpayable",
            "type": "function"
        },
        {
            "inputs": [
                {
                    "internalType": "uint32",
                    "name": "_ownerId",
                    "type": "uint32"
                },
                {
                    "internalType": "string",
                    "name": "_seedName",
                    "type": "string"
                },
                {
                    "internalType": "string",
                    "name": "_seedType",
                    "type": "string"
                },
                {
                    "internalType": "string",
                    "name": "_serialNumber",
                    "type": "string"
                },
                {
                    "internalType": "uint32",
                    "name": "_productCost",
                    "type": "uint32"
                }
            ],
            "name": "addProduct",
            "outputs": [
                {
                    "internalType": "uint32",
                    "name": "",
                    "type": "uint32"
                }
            ],
            "stateMutability": "nonpayable",
            "type": "function"
        },
        {
            "inputs": [
                {
                    "internalType": "uint32",
                    "name": "_productId",
                    "type": "uint32"
                },
                {
                    "internalType": "string",
                    "name": "_color",
                    "type": "string"
                },
                {
                    "internalType": "string",
                    "name": "_weight",
                    "type": "string"
                },
                {
                    "internalType": "string",
                    "name": "_description",
                    "type": "string"
                },
                {
                    "internalType": "bytes32",
                    "name": "_productHash",
                    "type": "bytes32"
                },
                {
                    "internalType": "uint32",
                    "name": "_productAnalyserId",
                    "type": "uint32"
                }
            ],
            "name": "addQualityReport",
            "outputs": [
                {
                    "internalType": "uint32",
                    "name": "",
                    "type": "uint32"
                }
            ],
            "stateMutability": "nonpayable",
            "type": "function"
        },
        {
            "inputs": [
                {
                    "internalType": "address",
                    "name": "",
                    "type": "address"
                }
            ],
            "name": "addressToParticipants",
            "outputs": [
                {
                    "internalType": "uint32",
                    "name": "",
                    "type": "uint32"
                }
            ],
            "stateMutability": "view",
            "type": "function"
        },
        {
            "inputs": [],
            "name": "adminSet",
            "outputs": [
                {
                    "internalType": "bool",
                    "name": "",
                    "type": "bool"
                }
            ],
            "stateMutability": "view",
            "type": "function"
        },
        {
            "inputs": [
                {
                    "internalType": "uint32",
                    "name": "_uid",
                    "type": "uint32"
                },
                {
                    "internalType": "string",
                    "name": "_uname",
                    "type": "string"
                },
                {
                    "internalType": "string",
                    "name": "_pass",
                    "type": "string"
                },
                {
                    "internalType": "string",
                    "name": "_utype",
                    "type": "string"
                }
            ],
            "name": "authenticateParticipant",
            "outputs": [
                {
                    "internalType": "bool",
                    "name": "",
                    "type": "bool"
                }
            ],
            "stateMutability": "view",
            "type": "function"
        },
        {
            "inputs": [
                {
                    "internalType": "uint32",
                    "name": "_regId",
                    "type": "uint32"
                }
            ],
            "name": "getOwnership",
            "outputs": [
                {
                    "internalType": "uint32",
                    "name": "",
                    "type": "uint32"
                },
                {
                    "internalType": "uint32",
                    "name": "",
                    "type": "uint32"
                },
                {
                    "internalType": "address",
                    "name": "",
                    "type": "address"
                },
                {
                    "internalType": "uint32",
                    "name": "",
                    "type": "uint32"
                }
            ],
            "stateMutability": "view",
            "type": "function"
        },
        {
            "inputs": [
                {
                    "internalType": "uint32",
                    "name": "_participant_id",
                    "type": "uint32"
                }
            ],
            "name": "getParticipant",
            "outputs": [
                {
                    "internalType": "string",
                    "name": "",
                    "type": "string"
                },
                {
                    "internalType": "address",
                    "name": "",
                    "type": "address"
                },
                {
                    "internalType": "string",
                    "name": "",
                    "type": "string"
                }
            ],
            "stateMutability": "view",
            "type": "function"
        },
        {
            "inputs": [
                {
                    "internalType": "uint32",
                    "name": "_productId",
                    "type": "uint32"
                }
            ],
            "name": "getProduct",
            "outputs": [
                {
                    "internalType": "string",
                    "name": "",
                    "type": "string"
                },
                {
                    "internalType": "string",
                    "name": "",
                    "type": "string"
                },
                {
                    "internalType": "string",
                    "name": "",
                    "type": "string"
                },
                {
                    "internalType": "uint32",
                    "name": "",
                    "type": "uint32"
                },
                {
                    "internalType": "address",
                    "name": "",
                    "type": "address"
                },
                {
                    "internalType": "uint32",
                    "name": "",
                    "type": "uint32"
                }
            ],
            "stateMutability": "view",
            "type": "function"
        },
        {
            "inputs": [
                {
                    "internalType": "uint32",
                    "name": "_prodId",
                    "type": "uint32"
                }
            ],
            "name": "getProvenance",
            "outputs": [
                {
                    "internalType": "uint32[]",
                    "name": "",
                    "type": "uint32[]"
                }
            ],
            "stateMutability": "view",
            "type": "function"
        },
        {
            "inputs": [
                {
                    "internalType": "uint32",
                    "name": "_productId",
                    "type": "uint32"
                }
            ],
            "name": "getQualityReport",
            "outputs": [
                {
                    "internalType": "string",
                    "name": "",
                    "type": "string"
                },
                {
                    "internalType": "string",
                    "name": "",
                    "type": "string"
                },
                {
                    "internalType": "string",
                    "name": "",
                    "type": "string"
                },
                {
                    "internalType": "bytes32",
                    "name": "",
                    "type": "bytes32"
                },
                {
                    "internalType": "uint32",
                    "name": "",
                    "type": "uint32"
                },
                {
                    "internalType": "uint32",
                    "name": "",
                    "type": "uint32"
                }
            ],
            "stateMutability": "view",
            "type": "function"
        },
        {
            "inputs": [
                {
                    "internalType": "uint32",
                    "name": "_user1Id",
                    "type": "uint32"
                },
                {
                    "internalType": "uint32",
                    "name": "_user2Id",
                    "type": "uint32"
                },
                {
                    "internalType": "uint32",
                    "name": "_prodId",
                    "type": "uint32"
                }
            ],
            "name": "newOwner",
            "outputs": [
                {
                    "internalType": "bool",
                    "name": "",
                    "type": "bool"
                }
            ],
            "stateMutability": "nonpayable",
            "type": "function"
        },
        {
            "inputs": [],
            "name": "owner_id",
            "outputs": [
                {
                    "internalType": "uint32",
                    "name": "",
                    "type": "uint32"
                }
            ],
            "stateMutability": "view",
            "type": "function"
        },
        {
            "inputs": [
                {
                    "internalType": "uint32",
                    "name": "",
                    "type": "uint32"
                }
            ],
            "name": "ownerships",
            "outputs": [
                {
                    "internalType": "uint32",
                    "name": "productId",
                    "type": "uint32"
                },
                {
                    "internalType": "uint32",
                    "name": "ownerId",
                    "type": "uint32"
                },
                {
                    "internalType": "uint32",
                    "name": "trxTimeStamp",
                    "type": "uint32"
                },
                {
                    "internalType": "address",
                    "name": "productOwner",
                    "type": "address"
                }
            ],
            "stateMutability": "view",
            "type": "function"
        },
        {
            "inputs": [],
            "name": "participant_id",
            "outputs": [
                {
                    "internalType": "uint32",
                    "name": "",
                    "type": "uint32"
                }
            ],
            "stateMutability": "view",
            "type": "function"
        },
        {
            "inputs": [
                {
                    "internalType": "uint32",
                    "name": "",
                    "type": "uint32"
                }
            ],
            "name": "participants",
            "outputs": [
                {
                    "internalType": "string",
                    "name": "userName",
                    "type": "string"
                },
                {
                    "internalType": "string",
                    "name": "password",
                    "type": "string"
                },
                {
                    "internalType": "string",
                    "name": "participantType",
                    "type": "string"
                },
                {
                    "internalType": "address",
                    "name": "participantAddress",
                    "type": "address"
                }
            ],
            "stateMutability": "view",
            "type": "function"
        },
        {
            "inputs": [
                {
                    "internalType": "uint32",
                    "name": "",
                    "type": "uint32"
                }
            ],
            "name": "productToQuality",
            "outputs": [
                {
                    "internalType": "uint32",
                    "name": "",
                    "type": "uint32"
                }
            ],
            "stateMutability": "view",
            "type": "function"
        },
        {
            "inputs": [
                {
                    "internalType": "uint32",
                    "name": "",
                    "type": "uint32"
                },
                {
                    "internalType": "uint256",
                    "name": "",
                    "type": "uint256"
                }
            ],
            "name": "productTrack",
            "outputs": [
                {
                    "internalType": "uint32",
                    "name": "",
                    "type": "uint32"
                }
            ],
            "stateMutability": "view",
            "type": "function"
        },
        {
            "inputs": [],
            "name": "product_id",
            "outputs": [
                {
                    "internalType": "uint32",
                    "name": "",
                    "type": "uint32"
                }
            ],
            "stateMutability": "view",
            "type": "function"
        },
        {
            "inputs": [
                {
                    "internalType": "uint32",
                    "name": "",
                    "type": "uint32"
                }
            ],
            "name": "products",
            "outputs": [
                {
                    "internalType": "string",
                    "name": "seedName",
                    "type": "string"
                },
                {
                    "internalType": "string",
                    "name": "seedType",
                    "type": "string"
                },
                {
                    "internalType": "string",
                    "name": "serialNumber",
                    "type": "string"
                },
                {
                    "internalType": "address",
                    "name": "productOwner",
                    "type": "address"
                },
                {
                    "internalType": "uint32",
                    "name": "cost",
                    "type": "uint32"
                },
                {
                    "internalType": "uint32",
                    "name": "supplyTimeStamp",
                    "type": "uint32"
                }
            ],
            "stateMutability": "view",
            "type": "function"
        },
        {
            "inputs": [
                {
                    "internalType": "uint32",
                    "name": "",
                    "type": "uint32"
                }
            ],
            "name": "qualityChecks",
            "outputs": [
                {
                    "internalType": "uint32",
                    "name": "productId",
                    "type": "uint32"
                },
                {
                    "internalType": "string",
                    "name": "color",
                    "type": "string"
                },
                {
                    "internalType": "string",
                    "name": "weight",
                    "type": "string"
                },
                {
                    "internalType": "string",
                    "name": "description",
                    "type": "string"
                },
                {
                    "internalType": "bytes32",
                    "name": "productHash",
                    "type": "bytes32"
                },
                {
                    "internalType": "uint32",
                    "name": "productAnalyserId",
                    "type": "uint32"
                },
                {
                    "internalType": "address",
                    "name": "productAnalyserAddress",
                    "type": "address"
                },
                {
                    "internalType": "uint32",
                    "name": "qaTimeStamp",
                    "type": "uint32"
                }
            ],
            "stateMutability": "view",
            "type": "function"
        },
        {
            "inputs": [],
            "name": "quality_id",
            "outputs": [
                {
                    "internalType": "uint32",
                    "name": "",
                    "type": "uint32"
                }
            ],
            "stateMutability": "view",
            "type": "function"
        },
        {
            "inputs": [
                {
                    "internalType": "string",
                    "name": "",
                    "type": "string"
                }
            ],
            "name": "serialNumberToProduct",
            "outputs": [
                {
                    "internalType": "uint32",
                    "name": "",
                    "type": "uint32"
                }
            ],
            "stateMutability": "view",
            "type": "function"
        }
    ],
    "bytecode": "6080604052600080546001600160881b031916905534801561002057600080fd5b50612c0b806100306000396000f3fe608060405234801561001057600080fd5b506004361061014d5760003560e01c806397dc0e30116100c3578063cd05b0421161007c578063cd05b042146103c4578063da694967146103ea578063df6d23f114610411578063eab0a479146104c2578063ebf43a7e146104d7578063fc2da910146104ea57600080fd5b806397dc0e30146102f1578063a498d83314610304578063a638ac4914610335578063bf712fd61461035a578063c70edb521461037f578063c8569565146103a457600080fd5b806357d20ff71161011557806357d20ff7146101fd578063721b5743146102145780637d0a9ac91461022757806380710f201461024a57806381e15610146102575780638f5ebf71146102da57600080fd5b80631a074802146101525780632e9d52841461017f57806331ae3e29146101a25780633b26a65d146101c857806350632104146101ea575b600080fd5b6101656101603660046123bf565b610503565b60405163ffffffff90911681526020015b60405180910390f35b61019261018d3660046123e9565b61054c565b6040519015158152602001610176565b6101656101b036600461242c565b60046020526000908152604090205463ffffffff1681565b6101db6101d636600461242c565b610e2b565b604051610176939291906124aa565b6101656101f8366004612581565b610f84565b60005461016590600160681b900463ffffffff1681565b61019261022236600461262b565b6111b6565b61023a61023536600461242c565b611301565b60405161017694939291906126c4565b6000546101929060ff1681565b6102a461026536600461242c565b60076020526000908152604090205463ffffffff808216916401000000008104821691600160401b82041690600160601b90046001600160a01b031684565b6040805163ffffffff9586168152938516602085015291909316908201526001600160a01b039091166060820152608001610176565b60005461016590600160481b900463ffffffff1681565b6101656102ff366004612717565b6114ca565b6101656103123660046127c9565b805160208183018101805160028252928201919093012091525463ffffffff1681565b61034861034336600461242c565b61173f565b604051610176969594939291906127fe565b61036d61036836600461242c565b61194d565b60405161017696959493929190612869565b61039261038d36600461242c565b611b2f565b604051610176969594939291906128d1565b6103b76103b236600461242c565b611daf565b6040516101769190612930565b6101656103d2366004612991565b60066020526000908152604090205463ffffffff1681565b6103fd6103f836600461242c565b611e44565b6040516101769897969594939291906129ac565b61048961041f36600461242c565b63ffffffff8082166000908152600760209081526040918290208251608081018452905480851680835264010000000082048616938301849052600160401b82049095169382018490526001600160a01b03600160601b9091041660609091018190529093509193565b6040805163ffffffff958616815293851660208501526001600160a01b0390921691830191909152919091166060820152608001610176565b60005461016590610100900463ffffffff1681565b6101656104e5366004612a29565b61203b565b6000546101659065010000000000900463ffffffff1681565b6008602052816000526040600020818154811061051f57600080fd5b9060005260206000209060089182820401919006600402915091509054906101000a900463ffffffff1681565b63ffffffff811660009081526001602052604081206003015482906001600160a01b0316331461059d5760405162461bcd60e51b815260206004820152600060248201526044015b60405180910390fd5b63ffffffff85166000908152600560205260408082208151608081019092528054829082906105cb90612a93565b80601f01602080910402602001604051908101604052809291908181526020018280546105f790612a93565b80156106445780601f1061061957610100808354040283529160200191610644565b820191906000526020600020905b81548152906001019060200180831161062757829003601f168201915b5050505050815260200160018201805461065d90612a93565b80601f016020809104026020016040519081016040528092919081815260200182805461068990612a93565b80156106d65780601f106106ab576101008083540402835291602001916106d6565b820191906000526020600020905b8154815290600101906020018083116106b957829003601f168201915b505050505081526020016002820180546106ef90612a93565b80601f016020809104026020016040519081016040528092919081815260200182805461071b90612a93565b80156107685780601f1061073d57610100808354040283529160200191610768565b820191906000526020600020905b81548152906001019060200180831161074b57829003601f168201915b5050509183525050600391909101546001600160a01b031660209182015263ffffffff871660009081526005909152604080822081516080810190925280549394509192909190829082906107bc90612a93565b80601f01602080910402602001604051908101604052809291908181526020018280546107e890612a93565b80156108355780601f1061080a57610100808354040283529160200191610835565b820191906000526020600020905b81548152906001019060200180831161081857829003601f168201915b5050505050815260200160018201805461084e90612a93565b80601f016020809104026020016040519081016040528092919081815260200182805461087a90612a93565b80156108c75780601f1061089c576101008083540402835291602001916108c7565b820191906000526020600020905b8154815290600101906020018083116108aa57829003601f168201915b505050505081526020016002820180546108e090612a93565b80601f016020809104026020016040519081016040528092919081815260200182805461090c90612a93565b80156109595780601f1061092e57610100808354040283529160200191610959565b820191906000526020600020905b81548152906001019060200180831161093c57829003601f168201915b5050509183525050600391909101546001600160a01b03166020909101526000805491925090600160481b900463ffffffff1681600961099883612acd565b91906101000a81548163ffffffff021916908363ffffffff16021790555090507fb77c7d6bf62fa24fc205955093030c58325cd2d3d35fb486ede7594fb99635f583604001516040516020016109ee9190612afe565b60405160208183030381529060405280519060200120148015610a5a57507fca10781ba6766e256cc640553e6469e56be04b867aa53f4d1f7ae4717abdf75e8260400151604051602001610a429190612afe565b60405160208183030381529060405280519060200120145b610c14577fca10781ba6766e256cc640553e6469e56be04b867aa53f4d1f7ae4717abdf75e8360400151604051602001610a949190612afe565b60405160208183030381529060405280519060200120148015610aee5750600080516020612bb68339815191528260400151604051602001610ad69190612afe565b60405160208183030381529060405280519060200120145b610c1457600080516020612bb68339815191528360400151604051602001610b169190612afe565b60405160208183030381529060405280519060200120148015610b705750600080516020612bb68339815191528260400151604051602001610b589190612afe565b60405160208183030381529060405280519060200120145b610c1457600080516020612bb68339815191528360400151604051602001610b989190612afe565b60405160208183030381529060405280519060200120148015610c0457507fc0878b4b16a78e8085cba0ca02fc0924f1492924058d153153a3f286e0fd70ff8260400151604051602001610bec9190612afe565b60405160208183030381529060405280519060200120145b610c145760009450505050610e23565b85600760008363ffffffff1663ffffffff16815260200190815260200160002060000160006101000a81548163ffffffff021916908363ffffffff1602179055508160600151600760008363ffffffff1663ffffffff168152602001908152602001600020600001600c6101000a8154816001600160a01b0302191690836001600160a01b0316021790555086600760008363ffffffff1663ffffffff16815260200190815260200160002060000160046101000a81548163ffffffff021916908363ffffffff16021790555042600760008363ffffffff1663ffffffff16815260200190815260200160002060000160086101000a81548163ffffffff021916908363ffffffff1602179055508160600151600160008863ffffffff1663ffffffff16815260200190815260200160002060030160006101000a8154816001600160a01b0302191690836001600160a01b03160217905550600860008763ffffffff1663ffffffff1681526020019081526020016000208190806001815401808255809150506001900390600052602060002090600891828204019190066004029091909190916101000a81548163ffffffff021916908363ffffffff1602179055507fa5470ac012c6e9dc500e62b1d3de0de58db49b3ab7cfebbfb126d9abd854199b86604051610e13919063ffffffff91909116815260200190565b60405180910390a1600194505050505b509392505050565b63ffffffff811660009081526005602052604081206003810154815460609392849290916001600160a01b039091169060028301908390610e6b90612a93565b80601f0160208091040260200160405190810160405280929190818152602001828054610e9790612a93565b8015610ee45780601f10610eb957610100808354040283529160200191610ee4565b820191906000526020600020905b815481529060010190602001808311610ec757829003601f168201915b50505050509250808054610ef790612a93565b80601f0160208091040260200160405190810160405280929190818152602001828054610f2390612a93565b8015610f705780601f10610f4557610100808354040283529160200191610f70565b820191906000526020600020905b815481529060010190602001808311610f5357829003601f168201915b505050505090509250925092509193909250565b63ffffffff8516600090815260056020908152604080832090517fb77c7d6bf62fa24fc205955093030c58325cd2d3d35fb486ede7594fb99635f592610fce926002019101612b1a565b60405160208183030381529060405280519060200120036111a95760008054610100900463ffffffff1681600161100483612acd565b82546101009290920a63ffffffff81810219909316918316021790915581166000908152600160209081526040909120885192935061104792909189019061230d565b5063ffffffff8116600090815260016020818152604090922087516110749391909201919088019061230d565b5063ffffffff8116600090815260016020908152604090912085516110a19260029092019187019061230d565b5082600160008363ffffffff1663ffffffff16815260200190815260200160002060030160146101000a81548163ffffffff021916908363ffffffff160217905550600560008863ffffffff1663ffffffff16815260200190815260200160002060030160009054906101000a90046001600160a01b0316600160008363ffffffff1663ffffffff16815260200190815260200160002060030160006101000a8154816001600160a01b0302191690836001600160a01b0316021790555042600160008363ffffffff1663ffffffff16815260200190815260200160002060030160186101000a81548163ffffffff021916908363ffffffff160217905550809150506111ad565b5060005b95945050505050565b6000816040516020016111c99190612afe565b60408051601f19818403018152828252805160209182012063ffffffff8916600090815260058352929092209192611205926002019101612b1a565b60405160208183030381529060405280519060200120036112f557836040516020016112319190612afe565b60408051601f19818403018152828252805160209182012063ffffffff891660009081526005835292909220919261126a929101612b1a565b60405160208183030381529060405280519060200120036112f557826040516020016112969190612afe565b60408051601f19818403018152828252805160209182012063ffffffff89166000908152600583529290922091926112d2926001019101612b1a565b60405160208183030381529060405280519060200120036112f5575060016112f9565b5060005b949350505050565b60056020526000908152604090208054819061131c90612a93565b80601f016020809104026020016040519081016040528092919081815260200182805461134890612a93565b80156113955780601f1061136a57610100808354040283529160200191611395565b820191906000526020600020905b81548152906001019060200180831161137857829003601f168201915b5050505050908060010180546113aa90612a93565b80601f01602080910402602001604051908101604052809291908181526020018280546113d690612a93565b80156114235780601f106113f857610100808354040283529160200191611423565b820191906000526020600020905b81548152906001019060200180831161140657829003601f168201915b50505050509080600201805461143890612a93565b80601f016020809104026020016040519081016040528092919081815260200182805461146490612a93565b80156114b15780601f10611486576101008083540402835291602001916114b1565b820191906000526020600020905b81548152906001019060200180831161149457829003601f168201915b505050600390930154919250506001600160a01b031684565b63ffffffff8116600090815260056020908152604080832090517fca10781ba6766e256cc640553e6469e56be04b867aa53f4d1f7ae4717abdf75e92611514926002019101612b1a565b60405160208183030381529060405280519060200120036117315763ffffffff808816600090815260046020908152604080832054841683526003909152812060050154600160c01b900490911690036115c15760405162461bcd60e51b815260206004820152602860248201527f5175616c697479207265706f727420616c726561647920616464656420666f72604482015267081c1c9bd91d58dd60c21b6064820152608401610594565b60008054600160681b900463ffffffff1681600d6115de83612acd565b82546101009290920a63ffffffff8181021990931691831602179091558181166000908152600360209081526040909120805463ffffffff1916928c16929092178255895192935061163a9260019290920191908a019061230d565b5063ffffffff8116600090815260036020908152604090912087516116679260029092019189019061230d565b5063ffffffff8116600090815260036020818152604090922087516116949391909201919088019061230d565b5063ffffffff818116600081815260036020818152604080842060048082018c90556005918201805463ffffffff198082168e8c169081178455808a52948752858920909701546001600160c01b03199091169093176001600160a01b03909316640100000000029290921763ffffffff60c01b1916600160c01b428a160217909155958e16845294905292902080549092161790559050611735565b5060005b9695505050505050565b63ffffffff8082166000908152600160208190526040822060038101548154606095869586959094859485949193928401926002850192600160a01b83048216926001600160a01b03811692600160c01b909104169086906117a090612a93565b80601f01602080910402602001604051908101604052809291908181526020018280546117cc90612a93565b80156118195780601f106117ee57610100808354040283529160200191611819565b820191906000526020600020905b8154815290600101906020018083116117fc57829003601f168201915b5050505050955084805461182c90612a93565b80601f016020809104026020016040519081016040528092919081815260200182805461185890612a93565b80156118a55780601f1061187a576101008083540402835291602001916118a5565b820191906000526020600020905b81548152906001019060200180831161188857829003601f168201915b505050505094508380546118b890612a93565b80601f01602080910402602001604051908101604052809291908181526020018280546118e490612a93565b80156119315780601f1061190657610100808354040283529160200191611931565b820191906000526020600020905b81548152906001019060200180831161191457829003601f168201915b5050505050935095509550955095509550955091939550919395565b60016020526000908152604090208054819061196890612a93565b80601f016020809104026020016040519081016040528092919081815260200182805461199490612a93565b80156119e15780601f106119b6576101008083540402835291602001916119e1565b820191906000526020600020905b8154815290600101906020018083116119c457829003601f168201915b5050505050908060010180546119f690612a93565b80601f0160208091040260200160405190810160405280929190818152602001828054611a2290612a93565b8015611a6f5780601f10611a4457610100808354040283529160200191611a6f565b820191906000526020600020905b815481529060010190602001808311611a5257829003601f168201915b505050505090806002018054611a8490612a93565b80601f0160208091040260200160405190810160405280929190818152602001828054611ab090612a93565b8015611afd5780601f10611ad257610100808354040283529160200191611afd565b820191906000526020600020905b815481529060010190602001808311611ae057829003601f168201915b505050600390930154919250506001600160a01b0381169063ffffffff600160a01b8204811691600160c01b90041686565b63ffffffff80821660009081526004602090815260408083205484168352600382528083208151610100810190925280549094168152600184018054606095869586959094859485948594929384019190611b8990612a93565b80601f0160208091040260200160405190810160405280929190818152602001828054611bb590612a93565b8015611c025780601f10611bd757610100808354040283529160200191611c02565b820191906000526020600020905b815481529060010190602001808311611be557829003601f168201915b50505050508152602001600282018054611c1b90612a93565b80601f0160208091040260200160405190810160405280929190818152602001828054611c4790612a93565b8015611c945780601f10611c6957610100808354040283529160200191611c94565b820191906000526020600020905b815481529060010190602001808311611c7757829003601f168201915b50505050508152602001600382018054611cad90612a93565b80601f0160208091040260200160405190810160405280929190818152602001828054611cd990612a93565b8015611d265780601f10611cfb57610100808354040283529160200191611d26565b820191906000526020600020905b815481529060010190602001808311611d0957829003601f168201915b5050509183525050600482015460208083019190915260059092015463ffffffff80821660408085019190915264010000000083046001600160a01b0316606080860191909152600160c01b9093049091166080938401529284015192840151908401519184015160a085015160e090950151939d919c50919a50909850919650945092505050565b63ffffffff8116600090815260086020908152604091829020805483518184028101840190945280845260609392830182828015611e3857602002820191906000526020600020906000905b82829054906101000a900463ffffffff1663ffffffff1681526020019060040190602082600301049283019260010382029150808411611dfb5790505b50505050509050919050565b6003602052600090815260409020805460018201805463ffffffff9092169291611e6d90612a93565b80601f0160208091040260200160405190810160405280929190818152602001828054611e9990612a93565b8015611ee65780601f10611ebb57610100808354040283529160200191611ee6565b820191906000526020600020905b815481529060010190602001808311611ec957829003601f168201915b505050505090806002018054611efb90612a93565b80601f0160208091040260200160405190810160405280929190818152602001828054611f2790612a93565b8015611f745780601f10611f4957610100808354040283529160200191611f74565b820191906000526020600020905b815481529060010190602001808311611f5757829003601f168201915b505050505090806003018054611f8990612a93565b80601f0160208091040260200160405190810160405280929190818152602001828054611fb590612a93565b80156120025780601f10611fd757610100808354040283529160200191612002565b820191906000526020600020905b815481529060010190602001808311611fe557829003601f168201915b50505050600483015460059093015491929163ffffffff808216925064010000000082046001600160a01b031691600160c01b90041688565b6000805460ff1615806120b857503360009081526006602090815260408083205463ffffffff168352600582529182902091517ff23ec0bb4210edd5cba85afd05127efcd2fc6a781bfed49188da1081670b22d8926120a09260029091019101612b1a565b60405160208183030381529060405280519060200120145b61210e5760405162461bcd60e51b815260206004820152602160248201527f4e6f6e2d61646d696e2063616e6e6f7420616464207061727469636970616e746044820152607360f81b6064820152608401610594565b7ff23ec0bb4210edd5cba85afd05127efcd2fc6a781bfed49188da1081670b22d8826040516020016121409190612afe565b6040516020818303038152906040528051906020012014158015612166575060005460ff165b1561224c576000805465010000000000900463ffffffff1681600561218a83612acd565b82546101009290920a63ffffffff8181021990931691831602179091558116600090815260056020908152604090912088519293506121cd92909189019061230d565b5063ffffffff8116600090815260056020908152604090912086516121fa9260019092019188019061230d565b5063ffffffff811660009081526005602090815260409091206003810180546001600160a01b0319166001600160a01b03881617905584516122449260029092019186019061230d565b5090506112f9565b7ff23ec0bb4210edd5cba85afd05127efcd2fc6a781bfed49188da1081670b22d88260405160200161227e9190612afe565b60405160208183030381529060405280519060200120036112f95760005460ff16156122e35760405162461bcd60e51b815260206004820152601460248201527310591b5a5b881a5cc8185b1c9958591e481cd95d60621b6044820152606401610594565b6000805460ff191660011780825563ffffffff650100000000009091041681600561218a83612acd565b82805461231990612a93565b90600052602060002090601f01602090048101928261233b5760008555612381565b82601f1061235457805160ff1916838001178555612381565b82800160010185558215612381579182015b82811115612381578251825591602001919060010190612366565b5061238d929150612391565b5090565b5b8082111561238d5760008155600101612392565b803563ffffffff811681146123ba57600080fd5b919050565b600080604083850312156123d257600080fd5b6123db836123a6565b946020939093013593505050565b6000806000606084860312156123fe57600080fd5b612407846123a6565b9250612415602085016123a6565b9150612423604085016123a6565b90509250925092565b60006020828403121561243e57600080fd5b612447826123a6565b9392505050565b60005b83811015612469578181015183820152602001612451565b83811115612478576000848401525b50505050565b6000815180845261249681602086016020860161244e565b601f01601f19169290920160200192915050565b6060815260006124bd606083018661247e565b6001600160a01b03851660208401528281036040840152611735818561247e565b634e487b7160e01b600052604160045260246000fd5b600082601f83011261250557600080fd5b813567ffffffffffffffff80821115612520576125206124de565b604051601f8301601f19908116603f01168101908282118183101715612548576125486124de565b8160405283815286602085880101111561256157600080fd5b836020870160208301376000602085830101528094505050505092915050565b600080600080600060a0868803121561259957600080fd5b6125a2866123a6565b9450602086013567ffffffffffffffff808211156125bf57600080fd5b6125cb89838a016124f4565b955060408801359150808211156125e157600080fd5b6125ed89838a016124f4565b9450606088013591508082111561260357600080fd5b50612610888289016124f4565b92505061261f608087016123a6565b90509295509295909350565b6000806000806080858703121561264157600080fd5b61264a856123a6565b9350602085013567ffffffffffffffff8082111561266757600080fd5b612673888389016124f4565b9450604087013591508082111561268957600080fd5b612695888389016124f4565b935060608701359150808211156126ab57600080fd5b506126b8878288016124f4565b91505092959194509250565b6080815260006126d7608083018761247e565b82810360208401526126e9818761247e565b905082810360408401526126fd818661247e565b91505060018060a01b038316606083015295945050505050565b60008060008060008060c0878903121561273057600080fd5b612739876123a6565b9550602087013567ffffffffffffffff8082111561275657600080fd5b6127628a838b016124f4565b9650604089013591508082111561277857600080fd5b6127848a838b016124f4565b9550606089013591508082111561279a57600080fd5b506127a789828a016124f4565b935050608087013591506127bd60a088016123a6565b90509295509295509295565b6000602082840312156127db57600080fd5b813567ffffffffffffffff8111156127f257600080fd5b6112f9848285016124f4565b60c08152600061281160c083018961247e565b8281036020840152612823818961247e565b90508281036040840152612837818861247e565b63ffffffff96871660608501526001600160a01b039590951660808401525050921660a0909201919091529392505050565b60c08152600061287c60c083018961247e565b828103602084015261288e818961247e565b905082810360408401526128a2818861247e565b6001600160a01b03969096166060840152505063ffffffff9283166080820152911660a0909101529392505050565b60c0815260006128e460c083018961247e565b82810360208401526128f6818961247e565b9050828103604084015261290a818861247e565b6060840196909652505063ffffffff9283166080820152911660a0909101529392505050565b6020808252825182820181905260009190848201906040850190845b8181101561296e57835163ffffffff168352928401929184019160010161294c565b50909695505050505050565b80356001600160a01b03811681146123ba57600080fd5b6000602082840312156129a357600080fd5b6124478261297a565b600061010063ffffffff808c1684528160208501526129cd8285018c61247e565b915083820360408501526129e1828b61247e565b915083820360608501526129f5828a61247e565b608085019890985295861660a084015250506001600160a01b039290921660c083015290911660e090910152949350505050565b60008060008060808587031215612a3f57600080fd5b843567ffffffffffffffff80821115612a5757600080fd5b612a63888389016124f4565b95506020870135915080821115612a7957600080fd5b612a85888389016124f4565b94506126956040880161297a565b600181811c90821680612aa757607f821691505b602082108103612ac757634e487b7160e01b600052602260045260246000fd5b50919050565b600063ffffffff808316818103612af457634e487b7160e01b600052601160045260246000fd5b6001019392505050565b60008251612b1081846020870161244e565b9190910192915050565b600080835481600182811c915080831680612b3657607f831692505b60208084108203612b5557634e487b7160e01b86526022600452602486fd5b818015612b695760018114612b7a57612ba7565b60ff19861689528489019650612ba7565b60008a81526020902060005b86811015612b9f5781548b820152908501908301612b86565b505084890196505b50949897505050505050505056fea19d0db335544d3c3ec35c34b9b35a51bd4861f7162de07d5af409611794db04a2646970667358221220f685909238d5eec7e7933be23c489cab061ba48a1661608612bb1d6031c4509564736f6c634300080d0033",
    "sourcePath": "/Users/mac/Jan-Jun-22/ethernals/workspace/FirstSeed/contracts/SupplyChain.sol",
    "compiler": {
        "name": "solc",
        "version": "0.8.13+commit.abaa5c0e"
    },
    "functionHashes": {
        "addParticipant(string,string,address,string)": "ebf43a7e",
        "addProduct(uint32,string,string,string,uint32)": "50632104",
        "addQualityReport(uint32,string,string,string,bytes32,uint32)": "97dc0e30",
        "addressToParticipants(address)": "cd05b042",
        "adminSet()": "80710f20",
        "authenticateParticipant(uint32,string,string,string)": "721b5743",
        "getOwnership(uint32)": "df6d23f1",
        "getParticipant(uint32)": "3b26a65d",
        "getProduct(uint32)": "a638ac49",
        "getProvenance(uint32)": "c8569565",
        "getQualityReport(uint32)": "c70edb52",
        "newOwner(uint32,uint32,uint32)": "2e9d5284",
        "owner_id()": "8f5ebf71",
        "ownerships(uint32)": "81e15610",
        "participant_id()": "fc2da910",
        "participants(uint32)": "7d0a9ac9",
        "productToQuality(uint32)": "31ae3e29",
        "productTrack(uint32,uint256)": "1a074802",
        "product_id()": "eab0a479",
        "products(uint32)": "bf712fd6",
        "qualityChecks(uint32)": "da694967",
        "quality_id()": "57d20ff7",
        "serialNumberToProduct(string)": "a498d833"
    },
    "gasEstimates": {
        "creation": {
            "codeDepositCost": "2255000",
            "executionCost": "26642",
            "totalCost": "2281642"
        },
        "external": {
            "addParticipant(string,string,address,string)": "infinite",
            "addProduct(uint32,string,string,string,uint32)": "infinite",
            "addQualityReport(uint32,string,string,string,bytes32,uint32)": "infinite",
            "addressToParticipants(address)": "2545",
            "adminSet()": "2399",
            "authenticateParticipant(uint32,string,string,string)": "infinite",
            "getOwnership(uint32)": "2911",
            "getParticipant(uint32)": "infinite",
            "getProduct(uint32)": "infinite",
            "getProvenance(uint32)": "infinite",
            "getQualityReport(uint32)": "infinite",
            "newOwner(uint32,uint32,uint32)": "infinite",
            "owner_id()": "2452",
            "ownerships(uint32)": "2813",
            "participant_id()": "2445",
            "participants(uint32)": "infinite",
            "productToQuality(uint32)": "2579",
            "productTrack(uint32,uint256)": "6421",
            "product_id()": "2401",
            "products(uint32)": "infinite",
            "qualityChecks(uint32)": "infinite",
            "quality_id()": "2342",
            "serialNumberToProduct(string)": "infinite"
        }
    }
}