{
  "contractName": "firstSeed",
  "abi": [
    {
      "anonymous": false,
      "inputs": [
        {
          "indexed": false,
          "internalType": "uint32",
          "name": "productId",
          "type": "uint32"
        }
      ],
      "name": "TransferOwnership",
      "type": "event"
    },
    {
      "inputs": [
        {
          "internalType": "address",
          "name": "",
          "type": "address"
        }
      ],
      "name": "addressToParticipants",
      "outputs": [
        {
          "internalType": "uint32",
          "name": "",
          "type": "uint32"
        }
      ],
      "stateMutability": "view",
      "type": "function"
    },
    {
      "inputs": [],
      "name": "adminSet",
      "outputs": [
        {
          "internalType": "bool",
          "name": "",
          "type": "bool"
        }
      ],
      "stateMutability": "view",
      "type": "function"
    },
    {
      "inputs": [],
      "name": "owner_id",
      "outputs": [
        {
          "internalType": "uint32",
          "name": "",
          "type": "uint32"
        }
      ],
      "stateMutability": "view",
      "type": "function"
    },
    {
      "inputs": [
        {
          "internalType": "uint32",
          "name": "",
          "type": "uint32"
        }
      ],
      "name": "ownerships",
      "outputs": [
        {
          "internalType": "uint32",
          "name": "productId",
          "type": "uint32"
        },
        {
          "internalType": "uint32",
          "name": "ownerId",
          "type": "uint32"
        },
        {
          "internalType": "uint32",
          "name": "trxTimeStamp",
          "type": "uint32"
        },
        {
          "internalType": "address",
          "name": "productOwner",
          "type": "address"
        }
      ],
      "stateMutability": "view",
      "type": "function"
    },
    {
      "inputs": [],
      "name": "participant_id",
      "outputs": [
        {
          "internalType": "uint32",
          "name": "",
          "type": "uint32"
        }
      ],
      "stateMutability": "view",
      "type": "function"
    },
    {
      "inputs": [
        {
          "internalType": "uint32",
          "name": "",
          "type": "uint32"
        }
      ],
      "name": "participants",
      "outputs": [
        {
          "internalType": "string",
          "name": "userName",
          "type": "string"
        },
        {
          "internalType": "string",
          "name": "password",
          "type": "string"
        },
        {
          "internalType": "string",
          "name": "participantType",
          "type": "string"
        },
        {
          "internalType": "address",
          "name": "participantAddress",
          "type": "address"
        }
      ],
      "stateMutability": "view",
      "type": "function"
    },
    {
      "inputs": [
        {
          "internalType": "uint32",
          "name": "",
          "type": "uint32"
        }
      ],
      "name": "productToQuality",
      "outputs": [
        {
          "internalType": "uint32",
          "name": "",
          "type": "uint32"
        }
      ],
      "stateMutability": "view",
      "type": "function"
    },
    {
      "inputs": [
        {
          "internalType": "uint32",
          "name": "",
          "type": "uint32"
        },
        {
          "internalType": "uint256",
          "name": "",
          "type": "uint256"
        }
      ],
      "name": "productTrack",
      "outputs": [
        {
          "internalType": "uint32",
          "name": "",
          "type": "uint32"
        }
      ],
      "stateMutability": "view",
      "type": "function"
    },
    {
      "inputs": [],
      "name": "product_id",
      "outputs": [
        {
          "internalType": "uint32",
          "name": "",
          "type": "uint32"
        }
      ],
      "stateMutability": "view",
      "type": "function"
    },
    {
      "inputs": [
        {
          "internalType": "uint32",
          "name": "",
          "type": "uint32"
        }
      ],
      "name": "products",
      "outputs": [
        {
          "internalType": "string",
          "name": "seedName",
          "type": "string"
        },
        {
          "internalType": "string",
          "name": "seedType",
          "type": "string"
        },
        {
          "internalType": "string",
          "name": "serialNumber",
          "type": "string"
        },
        {
          "internalType": "address",
          "name": "productOwner",
          "type": "address"
        },
        {
          "internalType": "uint32",
          "name": "cost",
          "type": "uint32"
        },
        {
          "internalType": "uint32",
          "name": "supplyTimeStamp",
          "type": "uint32"
        }
      ],
      "stateMutability": "view",
      "type": "function"
    },
    {
      "inputs": [
        {
          "internalType": "uint32",
          "name": "",
          "type": "uint32"
        }
      ],
      "name": "qualityChecks",
      "outputs": [
        {
          "internalType": "uint32",
          "name": "productId",
          "type": "uint32"
        },
        {
          "internalType": "string",
          "name": "color",
          "type": "string"
        },
        {
          "internalType": "string",
          "name": "weight",
          "type": "string"
        },
        {
          "internalType": "string",
          "name": "description",
          "type": "string"
        },
        {
          "internalType": "bytes32",
          "name": "productHash",
          "type": "bytes32"
        },
        {
          "internalType": "uint32",
          "name": "productAnalyserId",
          "type": "uint32"
        },
        {
          "internalType": "address",
          "name": "productAnalyserAddress",
          "type": "address"
        },
        {
          "internalType": "uint32",
          "name": "qaTimeStamp",
          "type": "uint32"
        }
      ],
      "stateMutability": "view",
      "type": "function"
    },
    {
      "inputs": [],
      "name": "quality_id",
      "outputs": [
        {
          "internalType": "uint32",
          "name": "",
          "type": "uint32"
        }
      ],
      "stateMutability": "view",
      "type": "function"
    },
    {
      "inputs": [
        {
          "internalType": "string",
          "name": "",
          "type": "string"
        }
      ],
      "name": "serialNumberToProduct",
      "outputs": [
        {
          "internalType": "uint32",
          "name": "",
          "type": "uint32"
        }
      ],
      "stateMutability": "view",
      "type": "function"
    },
    {
      "inputs": [
        {
          "internalType": "string",
          "name": "_name",
          "type": "string"
        },
        {
          "internalType": "string",
          "name": "_pass",
          "type": "string"
        },
        {
          "internalType": "address",
          "name": "_pAdd",
          "type": "address"
        },
        {
          "internalType": "string",
          "name": "_pType",
          "type": "string"
        }
      ],
      "name": "addParticipant",
      "outputs": [
        {
          "internalType": "uint32",
          "name": "",
          "type": "uint32"
        }
      ],
      "stateMutability": "nonpayable",
      "type": "function"
    },
    {
      "inputs": [
        {
          "internalType": "uint32",
          "name": "_participant_id",
          "type": "uint32"
        }
      ],
      "name": "getParticipant",
      "outputs": [
        {
          "internalType": "string",
          "name": "",
          "type": "string"
        },
        {
          "internalType": "address",
          "name": "",
          "type": "address"
        },
        {
          "internalType": "string",
          "name": "",
          "type": "string"
        }
      ],
      "stateMutability": "view",
      "type": "function"
    },
    {
      "inputs": [
        {
          "internalType": "uint32",
          "name": "_ownerId",
          "type": "uint32"
        },
        {
          "internalType": "string",
          "name": "_seedName",
          "type": "string"
        },
        {
          "internalType": "string",
          "name": "_seedType",
          "type": "string"
        },
        {
          "internalType": "string",
          "name": "_serialNumber",
          "type": "string"
        },
        {
          "internalType": "uint32",
          "name": "_productCost",
          "type": "uint32"
        }
      ],
      "name": "addProduct",
      "outputs": [
        {
          "internalType": "uint32",
          "name": "",
          "type": "uint32"
        }
      ],
      "stateMutability": "nonpayable",
      "type": "function"
    },
    {
      "inputs": [
        {
          "internalType": "uint32",
          "name": "_productId",
          "type": "uint32"
        },
        {
          "internalType": "string",
          "name": "_color",
          "type": "string"
        },
        {
          "internalType": "string",
          "name": "_weight",
          "type": "string"
        },
        {
          "internalType": "string",
          "name": "_description",
          "type": "string"
        },
        {
          "internalType": "bytes32",
          "name": "_productHash",
          "type": "bytes32"
        },
        {
          "internalType": "uint32",
          "name": "_productAnalyserId",
          "type": "uint32"
        }
      ],
      "name": "addQualityReport",
      "outputs": [
        {
          "internalType": "uint32",
          "name": "",
          "type": "uint32"
        }
      ],
      "stateMutability": "nonpayable",
      "type": "function"
    },
    {
      "inputs": [
        {
          "internalType": "uint32",
          "name": "_productId",
          "type": "uint32"
        }
      ],
      "name": "getQualityReport",
      "outputs": [
        {
          "internalType": "string",
          "name": "",
          "type": "string"
        },
        {
          "internalType": "string",
          "name": "",
          "type": "string"
        },
        {
          "internalType": "string",
          "name": "",
          "type": "string"
        },
        {
          "internalType": "bytes32",
          "name": "",
          "type": "bytes32"
        },
        {
          "internalType": "uint32",
          "name": "",
          "type": "uint32"
        },
        {
          "internalType": "uint32",
          "name": "",
          "type": "uint32"
        }
      ],
      "stateMutability": "view",
      "type": "function"
    },
    {
      "inputs": [
        {
          "internalType": "uint32",
          "name": "_productId",
          "type": "uint32"
        }
      ],
      "name": "getProduct",
      "outputs": [
        {
          "internalType": "string",
          "name": "",
          "type": "string"
        },
        {
          "internalType": "string",
          "name": "",
          "type": "string"
        },
        {
          "internalType": "string",
          "name": "",
          "type": "string"
        },
        {
          "internalType": "uint32",
          "name": "",
          "type": "uint32"
        },
        {
          "internalType": "address",
          "name": "",
          "type": "address"
        },
        {
          "internalType": "uint32",
          "name": "",
          "type": "uint32"
        }
      ],
      "stateMutability": "view",
      "type": "function"
    },
    {
      "inputs": [
        {
          "internalType": "uint32",
          "name": "_user1Id",
          "type": "uint32"
        },
        {
          "internalType": "uint32",
          "name": "_user2Id",
          "type": "uint32"
        },
        {
          "internalType": "uint32",
          "name": "_prodId",
          "type": "uint32"
        }
      ],
      "name": "newOwner",
      "outputs": [
        {
          "internalType": "bool",
          "name": "",
          "type": "bool"
        }
      ],
      "stateMutability": "nonpayable",
      "type": "function"
    },
    {
      "inputs": [
        {
          "internalType": "uint32",
          "name": "_prodId",
          "type": "uint32"
        }
      ],
      "name": "getProvenance",
      "outputs": [
        {
          "internalType": "uint32[]",
          "name": "",
          "type": "uint32[]"
        }
      ],
      "stateMutability": "view",
      "type": "function"
    },
    {
      "inputs": [
        {
          "internalType": "uint32",
          "name": "_regId",
          "type": "uint32"
        }
      ],
      "name": "getOwnership",
      "outputs": [
        {
          "internalType": "uint32",
          "name": "",
          "type": "uint32"
        },
        {
          "internalType": "uint32",
          "name": "",
          "type": "uint32"
        },
        {
          "internalType": "address",
          "name": "",
          "type": "address"
        },
        {
          "internalType": "uint32",
          "name": "",
          "type": "uint32"
        }
      ],
      "stateMutability": "view",
      "type": "function"
    },
    {
      "inputs": [
        {
          "internalType": "uint32",
          "name": "_uid",
          "type": "uint32"
        },
        {
          "internalType": "string",
          "name": "_uname",
          "type": "string"
        },
        {
          "internalType": "string",
          "name": "_pass",
          "type": "string"
        },
        {
          "internalType": "string",
          "name": "_utype",
          "type": "string"
        }
      ],
      "name": "authenticateParticipant",
      "outputs": [
        {
          "internalType": "bool",
          "name": "",
          "type": "bool"
        }
      ],
      "stateMutability": "view",
      "type": "function"
    }
  ],
  "bytecode": "0x608060405260008060006101000a81548160ff02191690831515021790555060008060016101000a81548163ffffffff021916908363ffffffff16021790555060008060056101000a81548163ffffffff021916908363ffffffff16021790555060008060096101000a81548163ffffffff021916908363ffffffff160217905550600080600d6101000a81548163ffffffff021916908363ffffffff1602179055503480156100ae57600080fd5b50613def806100be6000396000f3fe608060405234801561001057600080fd5b506004361061014d5760003560e01c806397dc0e30116100c3578063cd05b0421161007c578063cd05b04214610463578063da69496714610493578063df6d23f1146104ca578063eab0a479146104fd578063ebf43a7e1461051b578063fc2da9101461054b5761014d565b806397dc0e3014610334578063a498d83314610364578063a638ac4914610394578063bf712fd6146103c9578063c70edb52146103fe578063c8569565146104335761014d565b806357d20ff71161011557806357d20ff714610244578063721b5743146102625780637d0a9ac91461029257806380710f20146102c557806381e15610146102e35780638f5ebf71146103165761014d565b80631a074802146101525780632e9d52841461018257806331ae3e29146101b25780633b26a65d146101e25780635063210414610214575b600080fd5b61016c60048036038101906101679190612ef0565b610569565b6040516101799190612f3f565b60405180910390f35b61019c60048036038101906101979190612f5a565b6105b2565b6040516101a99190612fc8565b60405180910390f35b6101cc60048036038101906101c79190612fe3565b611002565b6040516101d99190612f3f565b60405180910390f35b6101fc60048036038101906101f79190612fe3565b611025565b60405161020b939291906130ea565b60405180910390f35b61022e60048036038101906102299190613264565b6111d7565b60405161023b9190612f3f565b60405180910390f35b61024c61146b565b6040516102599190612f3f565b60405180910390f35b61027c60048036038101906102779190613333565b611481565b6040516102899190612fc8565b60405180910390f35b6102ac60048036038101906102a79190612fe3565b6115f7565b6040516102bc94939291906133ee565b60405180910390f35b6102cd6117df565b6040516102da9190612fc8565b60405180910390f35b6102fd60048036038101906102f89190612fe3565b6117f0565b60405161030d9493929190613448565b60405180910390f35b61031e611870565b60405161032b9190612f3f565b60405180910390f35b61034e600480360381019061034991906134c3565b611886565b60405161035b9190612f3f565b60405180910390f35b61037e600480360381019061037991906135a4565b611c6b565b60405161038b9190612f3f565b60405180910390f35b6103ae60048036038101906103a99190612fe3565b611ca4565b6040516103c0969594939291906135ed565b60405180910390f35b6103e360048036038101906103de9190612fe3565b611f76565b6040516103f596959493929190613663565b60405180910390f35b61041860048036038101906104139190612fe3565b61218a565b60405161042a969594939291906136e8565b60405180910390f35b61044d60048036038101906104489190612fe3565b6124ad565b60405161045a919061381c565b60405180910390f35b61047d6004803603810190610478919061386a565b612550565b60405161048a9190612f3f565b60405180910390f35b6104ad60048036038101906104a89190612fe3565b612573565b6040516104c1989796959493929190613897565b60405180910390f35b6104e460048036038101906104df9190612fe3565b6127a3565b6040516104f4949392919061392a565b60405180910390f35b6105056128c3565b6040516105129190612f3f565b60405180910390f35b6105356004803603810190610530919061396f565b6128d9565b6040516105429190612f3f565b60405180910390f35b610553612db1565b6040516105609190612f3f565b60405180910390f35b6008602052816000526040600020818154811061058557600080fd5b9060005260206000209060089182820401919006600402915091509054906101000a900463ffffffff1681565b600081600160008263ffffffff1663ffffffff16815260200190815260200160002060030160009054906101000a900473ffffffffffffffffffffffffffffffffffffffff1673ffffffffffffffffffffffffffffffffffffffff163373ffffffffffffffffffffffffffffffffffffffff1614610665576040517f08c379a000000000000000000000000000000000000000000000000000000000815260040161065c90613a50565b60405180910390fd5b6000600560008763ffffffff1663ffffffff1681526020019081526020016000206040518060800160405290816000820180546106a190613a9f565b80601f01602080910402602001604051908101604052809291908181526020018280546106cd90613a9f565b801561071a5780601f106106ef5761010080835404028352916020019161071a565b820191906000526020600020905b8154815290600101906020018083116106fd57829003601f168201915b5050505050815260200160018201805461073390613a9f565b80601f016020809104026020016040519081016040528092919081815260200182805461075f90613a9f565b80156107ac5780601f10610781576101008083540402835291602001916107ac565b820191906000526020600020905b81548152906001019060200180831161078f57829003601f168201915b505050505081526020016002820180546107c590613a9f565b80601f01602080910402602001604051908101604052809291908181526020018280546107f190613a9f565b801561083e5780601f106108135761010080835404028352916020019161083e565b820191906000526020600020905b81548152906001019060200180831161082157829003601f168201915b505050505081526020016003820160009054906101000a900473ffffffffffffffffffffffffffffffffffffffff1673ffffffffffffffffffffffffffffffffffffffff1673ffffffffffffffffffffffffffffffffffffffff168152505090506000600560008763ffffffff1663ffffffff1681526020019081526020016000206040518060800160405290816000820180546108db90613a9f565b80601f016020809104026020016040519081016040528092919081815260200182805461090790613a9f565b80156109545780601f1061092957610100808354040283529160200191610954565b820191906000526020600020905b81548152906001019060200180831161093757829003601f168201915b5050505050815260200160018201805461096d90613a9f565b80601f016020809104026020016040519081016040528092919081815260200182805461099990613a9f565b80156109e65780601f106109bb576101008083540402835291602001916109e6565b820191906000526020600020905b8154815290600101906020018083116109c957829003601f168201915b505050505081526020016002820180546109ff90613a9f565b80601f0160208091040260200160405190810160405280929190818152602001828054610a2b90613a9f565b8015610a785780601f10610a4d57610100808354040283529160200191610a78565b820191906000526020600020905b815481529060010190602001808311610a5b57829003601f168201915b505050505081526020016003820160009054906101000a900473ffffffffffffffffffffffffffffffffffffffff1673ffffffffffffffffffffffffffffffffffffffff1673ffffffffffffffffffffffffffffffffffffffff16815250509050600080600981819054906101000a900463ffffffff1680929190610afc90613aff565b91906101000a81548163ffffffff021916908363ffffffff16021790555090507fb77c7d6bf62fa24fc205955093030c58325cd2d3d35fb486ede7594fb99635f58360400151604051602001610b529190613b67565b60405160208183030381529060405280519060200120148015610bbe57507fca10781ba6766e256cc640553e6469e56be04b867aa53f4d1f7ae4717abdf75e8260400151604051602001610ba69190613b67565b60405160208183030381529060405280519060200120145b610dc3577fca10781ba6766e256cc640553e6469e56be04b867aa53f4d1f7ae4717abdf75e8360400151604051602001610bf89190613b67565b60405160208183030381529060405280519060200120148015610c6457507fa19d0db335544d3c3ec35c34b9b35a51bd4861f7162de07d5af409611794db048260400151604051602001610c4c9190613b67565b60405160208183030381529060405280519060200120145b610dc2577fa19d0db335544d3c3ec35c34b9b35a51bd4861f7162de07d5af409611794db048360400151604051602001610c9e9190613b67565b60405160208183030381529060405280519060200120148015610d0a57507fa19d0db335544d3c3ec35c34b9b35a51bd4861f7162de07d5af409611794db048260400151604051602001610cf29190613b67565b60405160208183030381529060405280519060200120145b610dc1577fa19d0db335544d3c3ec35c34b9b35a51bd4861f7162de07d5af409611794db048360400151604051602001610d449190613b67565b60405160208183030381529060405280519060200120148015610db057507fc0878b4b16a78e8085cba0ca02fc0924f1492924058d153153a3f286e0fd70ff8260400151604051602001610d989190613b67565b60405160208183030381529060405280519060200120145b610dc05760009450505050610ffa565b5b5b5b85600760008363ffffffff1663ffffffff16815260200190815260200160002060000160006101000a81548163ffffffff021916908363ffffffff1602179055508160600151600760008363ffffffff1663ffffffff168152602001908152602001600020600001600c6101000a81548173ffffffffffffffffffffffffffffffffffffffff021916908373ffffffffffffffffffffffffffffffffffffffff16021790555086600760008363ffffffff1663ffffffff16815260200190815260200160002060000160046101000a81548163ffffffff021916908363ffffffff16021790555042600760008363ffffffff1663ffffffff16815260200190815260200160002060000160086101000a81548163ffffffff021916908363ffffffff1602179055508160600151600160008863ffffffff1663ffffffff16815260200190815260200160002060030160006101000a81548173ffffffffffffffffffffffffffffffffffffffff021916908373ffffffffffffffffffffffffffffffffffffffff160217905550600860008763ffffffff1663ffffffff1681526020019081526020016000208190806001815401808255809150506001900390600052602060002090600891828204019190066004029091909190916101000a81548163ffffffff021916908363ffffffff1602179055507fa5470ac012c6e9dc500e62b1d3de0de58db49b3ab7cfebbfb126d9abd854199b86604051610fea9190612f3f565b60405180910390a1600194505050505b509392505050565b60046020528060005260406000206000915054906101000a900463ffffffff1681565b606060006060600560008563ffffffff1663ffffffff168152602001908152602001600020600001600560008663ffffffff1663ffffffff16815260200190815260200160002060030160009054906101000a900473ffffffffffffffffffffffffffffffffffffffff16600560008763ffffffff1663ffffffff1681526020019081526020016000206002018280546110be90613a9f565b80601f01602080910402602001604051908101604052809291908181526020018280546110ea90613a9f565b80156111375780601f1061110c57610100808354040283529160200191611137565b820191906000526020600020905b81548152906001019060200180831161111a57829003601f168201915b5050505050925080805461114a90613a9f565b80601f016020809104026020016040519081016040528092919081815260200182805461117690613a9f565b80156111c35780601f10611198576101008083540402835291602001916111c3565b820191906000526020600020905b8154815290600101906020018083116111a657829003601f168201915b505050505090509250925092509193909250565b60007fb77c7d6bf62fa24fc205955093030c58325cd2d3d35fb486ede7594fb99635f5600560008863ffffffff1663ffffffff16815260200190815260200160002060020160405160200161122c9190613c12565b604051602081830303815290604052805190602001200361145d57600080600181819054906101000a900463ffffffff168092919061126a90613aff565b91906101000a81548163ffffffff021916908363ffffffff160217905550905085600160008363ffffffff1663ffffffff16815260200190815260200160002060000190805190602001906112c0929190612dc7565b5084600160008363ffffffff1663ffffffff16815260200190815260200160002060010190805190602001906112f7929190612dc7565b5083600160008363ffffffff1663ffffffff168152602001908152602001600020600201908051906020019061132e929190612dc7565b5082600160008363ffffffff1663ffffffff16815260200190815260200160002060030160146101000a81548163ffffffff021916908363ffffffff160217905550600560008863ffffffff1663ffffffff16815260200190815260200160002060030160009054906101000a900473ffffffffffffffffffffffffffffffffffffffff16600160008363ffffffff1663ffffffff16815260200190815260200160002060030160006101000a81548173ffffffffffffffffffffffffffffffffffffffff021916908373ffffffffffffffffffffffffffffffffffffffff16021790555042600160008363ffffffff1663ffffffff16815260200190815260200160002060030160186101000a81548163ffffffff021916908363ffffffff16021790555080915050611462565b600090505b95945050505050565b6000600d9054906101000a900463ffffffff1681565b6000816040516020016114949190613b67565b60405160208183030381529060405280519060200120600560008763ffffffff1663ffffffff1681526020019081526020016000206002016040516020016114dc9190613c12565b60405160208183030381529060405280519060200120036115ea57836040516020016115089190613b67565b60405160208183030381529060405280519060200120600560008763ffffffff1663ffffffff1681526020019081526020016000206000016040516020016115509190613c12565b60405160208183030381529060405280519060200120036115e9578260405160200161157c9190613b67565b60405160208183030381529060405280519060200120600560008763ffffffff1663ffffffff1681526020019081526020016000206001016040516020016115c49190613c12565b60405160208183030381529060405280519060200120036115e857600190506115ef565b5b5b600090505b949350505050565b600560205280600052604060002060009150905080600001805461161a90613a9f565b80601f016020809104026020016040519081016040528092919081815260200182805461164690613a9f565b80156116935780601f1061166857610100808354040283529160200191611693565b820191906000526020600020905b81548152906001019060200180831161167657829003601f168201915b5050505050908060010180546116a890613a9f565b80601f01602080910402602001604051908101604052809291908181526020018280546116d490613a9f565b80156117215780601f106116f657610100808354040283529160200191611721565b820191906000526020600020905b81548152906001019060200180831161170457829003601f168201915b50505050509080600201805461173690613a9f565b80601f016020809104026020016040519081016040528092919081815260200182805461176290613a9f565b80156117af5780601f10611784576101008083540402835291602001916117af565b820191906000526020600020905b81548152906001019060200180831161179257829003601f168201915b5050505050908060030160009054906101000a900473ffffffffffffffffffffffffffffffffffffffff16905084565b60008054906101000a900460ff1681565b60076020528060005260406000206000915090508060000160009054906101000a900463ffffffff16908060000160049054906101000a900463ffffffff16908060000160089054906101000a900463ffffffff169080600001600c9054906101000a900473ffffffffffffffffffffffffffffffffffffffff16905084565b600060099054906101000a900463ffffffff1681565b60007fca10781ba6766e256cc640553e6469e56be04b867aa53f4d1f7ae4717abdf75e600560008463ffffffff1663ffffffff1681526020019081526020016000206002016040516020016118db9190613c12565b6040516020818303038152906040528051906020012003611c5c57600060036000600460008b63ffffffff1663ffffffff16815260200190815260200160002060009054906101000a900463ffffffff1663ffffffff1663ffffffff16815260200190815260200160002060050160189054906101000a900463ffffffff1663ffffffff16036119a0576040517f08c379a000000000000000000000000000000000000000000000000000000000815260040161199790613c9b565b60405180910390fd5b600080600d81819054906101000a900463ffffffff16809291906119c390613aff565b91906101000a81548163ffffffff021916908363ffffffff160217905550905087600360008363ffffffff1663ffffffff16815260200190815260200160002060000160006101000a81548163ffffffff021916908363ffffffff16021790555086600360008363ffffffff1663ffffffff1681526020019081526020016000206001019080519060200190611a5a929190612dc7565b5085600360008363ffffffff1663ffffffff1681526020019081526020016000206002019080519060200190611a91929190612dc7565b5084600360008363ffffffff1663ffffffff1681526020019081526020016000206003019080519060200190611ac8929190612dc7565b5083600360008363ffffffff1663ffffffff1681526020019081526020016000206004018190555082600360008363ffffffff1663ffffffff16815260200190815260200160002060050160006101000a81548163ffffffff021916908363ffffffff160217905550600560008463ffffffff1663ffffffff16815260200190815260200160002060030160009054906101000a900473ffffffffffffffffffffffffffffffffffffffff16600360008363ffffffff1663ffffffff16815260200190815260200160002060050160046101000a81548173ffffffffffffffffffffffffffffffffffffffff021916908373ffffffffffffffffffffffffffffffffffffffff16021790555042600360008363ffffffff1663ffffffff16815260200190815260200160002060050160186101000a81548163ffffffff021916908363ffffffff16021790555080600460008a63ffffffff1663ffffffff16815260200190815260200160002060006101000a81548163ffffffff021916908363ffffffff16021790555080915050611c61565b600090505b9695505050505050565b6002818051602081018201805184825260208301602085012081835280955050505050506000915054906101000a900463ffffffff1681565b60608060606000806000600160008863ffffffff1663ffffffff168152602001908152602001600020600001600160008963ffffffff1663ffffffff168152602001908152602001600020600101600160008a63ffffffff1663ffffffff168152602001908152602001600020600201600160008b63ffffffff1663ffffffff16815260200190815260200160002060030160149054906101000a900463ffffffff16600160008c63ffffffff1663ffffffff16815260200190815260200160002060030160009054906101000a900473ffffffffffffffffffffffffffffffffffffffff16600160008d63ffffffff1663ffffffff16815260200190815260200160002060030160189054906101000a900463ffffffff16858054611dc990613a9f565b80601f0160208091040260200160405190810160405280929190818152602001828054611df590613a9f565b8015611e425780601f10611e1757610100808354040283529160200191611e42565b820191906000526020600020905b815481529060010190602001808311611e2557829003601f168201915b50505050509550848054611e5590613a9f565b80601f0160208091040260200160405190810160405280929190818152602001828054611e8190613a9f565b8015611ece5780601f10611ea357610100808354040283529160200191611ece565b820191906000526020600020905b815481529060010190602001808311611eb157829003601f168201915b50505050509450838054611ee190613a9f565b80601f0160208091040260200160405190810160405280929190818152602001828054611f0d90613a9f565b8015611f5a5780601f10611f2f57610100808354040283529160200191611f5a565b820191906000526020600020905b815481529060010190602001808311611f3d57829003601f168201915b5050505050935095509550955095509550955091939550919395565b6001602052806000526040600020600091509050806000018054611f9990613a9f565b80601f0160208091040260200160405190810160405280929190818152602001828054611fc590613a9f565b80156120125780601f10611fe757610100808354040283529160200191612012565b820191906000526020600020905b815481529060010190602001808311611ff557829003601f168201915b50505050509080600101805461202790613a9f565b80601f016020809104026020016040519081016040528092919081815260200182805461205390613a9f565b80156120a05780601f10612075576101008083540402835291602001916120a0565b820191906000526020600020905b81548152906001019060200180831161208357829003601f168201915b5050505050908060020180546120b590613a9f565b80601f01602080910402602001604051908101604052809291908181526020018280546120e190613a9f565b801561212e5780601f106121035761010080835404028352916020019161212e565b820191906000526020600020905b81548152906001019060200180831161211157829003601f168201915b5050505050908060030160009054906101000a900473ffffffffffffffffffffffffffffffffffffffff16908060030160149054906101000a900463ffffffff16908060030160189054906101000a900463ffffffff16905086565b606080606060008060008060036000600460008b63ffffffff1663ffffffff16815260200190815260200160002060009054906101000a900463ffffffff1663ffffffff1663ffffffff168152602001908152602001600020604051806101000160405290816000820160009054906101000a900463ffffffff1663ffffffff1663ffffffff16815260200160018201805461222590613a9f565b80601f016020809104026020016040519081016040528092919081815260200182805461225190613a9f565b801561229e5780601f106122735761010080835404028352916020019161229e565b820191906000526020600020905b81548152906001019060200180831161228157829003601f168201915b505050505081526020016002820180546122b790613a9f565b80601f01602080910402602001604051908101604052809291908181526020018280546122e390613a9f565b80156123305780601f1061230557610100808354040283529160200191612330565b820191906000526020600020905b81548152906001019060200180831161231357829003601f168201915b5050505050815260200160038201805461234990613a9f565b80601f016020809104026020016040519081016040528092919081815260200182805461237590613a9f565b80156123c25780601f10612397576101008083540402835291602001916123c2565b820191906000526020600020905b8154815290600101906020018083116123a557829003601f168201915b50505050508152602001600482015481526020016005820160009054906101000a900463ffffffff1663ffffffff1663ffffffff1681526020016005820160049054906101000a900473ffffffffffffffffffffffffffffffffffffffff1673ffffffffffffffffffffffffffffffffffffffff1673ffffffffffffffffffffffffffffffffffffffff1681526020016005820160189054906101000a900463ffffffff1663ffffffff1663ffffffff1681525050905080602001518160400151826060015183608001518460a001518560e001519650965096509650965096505091939550919395565b6060600860008363ffffffff1663ffffffff16815260200190815260200160002080548060200260200160405190810160405280929190818152602001828054801561254457602002820191906000526020600020906000905b82829054906101000a900463ffffffff1663ffffffff16815260200190600401906020826003010492830192600103820291508084116125075790505b50505050509050919050565b60066020528060005260406000206000915054906101000a900463ffffffff1681565b60036020528060005260406000206000915090508060000160009054906101000a900463ffffffff16908060010180546125ac90613a9f565b80601f01602080910402602001604051908101604052809291908181526020018280546125d890613a9f565b80156126255780601f106125fa57610100808354040283529160200191612625565b820191906000526020600020905b81548152906001019060200180831161260857829003601f168201915b50505050509080600201805461263a90613a9f565b80601f016020809104026020016040519081016040528092919081815260200182805461266690613a9f565b80156126b35780601f10612688576101008083540402835291602001916126b3565b820191906000526020600020905b81548152906001019060200180831161269657829003601f168201915b5050505050908060030180546126c890613a9f565b80601f01602080910402602001604051908101604052809291908181526020018280546126f490613a9f565b80156127415780601f1061271657610100808354040283529160200191612741565b820191906000526020600020905b81548152906001019060200180831161272457829003601f168201915b5050505050908060040154908060050160009054906101000a900463ffffffff16908060050160049054906101000a900473ffffffffffffffffffffffffffffffffffffffff16908060050160189054906101000a900463ffffffff16905088565b6000806000806000600760008763ffffffff1663ffffffff1681526020019081526020016000206040518060800160405290816000820160009054906101000a900463ffffffff1663ffffffff1663ffffffff1681526020016000820160049054906101000a900463ffffffff1663ffffffff1663ffffffff1681526020016000820160089054906101000a900463ffffffff1663ffffffff1663ffffffff16815260200160008201600c9054906101000a900473ffffffffffffffffffffffffffffffffffffffff1673ffffffffffffffffffffffffffffffffffffffff1673ffffffffffffffffffffffffffffffffffffffff1681525050905080600001518160200151826060015183604001519450945094509450509193509193565b600060019054906101000a900463ffffffff1681565b60008060009054906101000a900460ff1615806129ab57507ff23ec0bb4210edd5cba85afd05127efcd2fc6a781bfed49188da1081670b22d860056000600660003373ffffffffffffffffffffffffffffffffffffffff1673ffffffffffffffffffffffffffffffffffffffff16815260200190815260200160002060009054906101000a900463ffffffff1663ffffffff1663ffffffff1681526020019081526020016000206002016040516020016129939190613c12565b60405160208183030381529060405280519060200120145b6129ea576040517f08c379a00000000000000000000000000000000000000000000000000000000081526004016129e190613d2d565b60405180910390fd5b7ff23ec0bb4210edd5cba85afd05127efcd2fc6a781bfed49188da1081670b22d882604051602001612a1c9190613b67565b6040516020818303038152906040528051906020012014158015612a4a575060008054906101000a900460ff165b15612ba157600080600581819054906101000a900463ffffffff1680929190612a7290613aff565b91906101000a81548163ffffffff021916908363ffffffff160217905550905085600560008363ffffffff1663ffffffff1681526020019081526020016000206000019080519060200190612ac8929190612dc7565b5084600560008363ffffffff1663ffffffff1681526020019081526020016000206001019080519060200190612aff929190612dc7565b5083600560008363ffffffff1663ffffffff16815260200190815260200160002060030160006101000a81548173ffffffffffffffffffffffffffffffffffffffff021916908373ffffffffffffffffffffffffffffffffffffffff16021790555082600560008363ffffffff1663ffffffff1681526020019081526020016000206002019080519060200190612b97929190612dc7565b5080915050612da9565b7ff23ec0bb4210edd5cba85afd05127efcd2fc6a781bfed49188da1081670b22d882604051602001612bd39190613b67565b6040516020818303038152906040528051906020012003612da85760008054906101000a900460ff1615612c3c576040517f08c379a0000000000000000000000000000000000000000000000000000000008152600401612c3390613d99565b60405180910390fd5b60016000806101000a81548160ff021916908315150217905550600080600581819054906101000a900463ffffffff1680929190612c7990613aff565b91906101000a81548163ffffffff021916908363ffffffff160217905550905085600560008363ffffffff1663ffffffff1681526020019081526020016000206000019080519060200190612ccf929190612dc7565b5084600560008363ffffffff1663ffffffff1681526020019081526020016000206001019080519060200190612d06929190612dc7565b5083600560008363ffffffff1663ffffffff16815260200190815260200160002060030160006101000a81548173ffffffffffffffffffffffffffffffffffffffff021916908373ffffffffffffffffffffffffffffffffffffffff16021790555082600560008363ffffffff1663ffffffff1681526020019081526020016000206002019080519060200190612d9e929190612dc7565b5080915050612da9565b5b949350505050565b600060059054906101000a900463ffffffff1681565b828054612dd390613a9f565b90600052602060002090601f016020900481019282612df55760008555612e3c565b82601f10612e0e57805160ff1916838001178555612e3c565b82800160010185558215612e3c579182015b82811115612e3b578251825591602001919060010190612e20565b5b509050612e499190612e4d565b5090565b5b80821115612e66576000816000905550600101612e4e565b5090565b6000604051905090565b600080fd5b600080fd5b600063ffffffff82169050919050565b612e9781612e7e565b8114612ea257600080fd5b50565b600081359050612eb481612e8e565b92915050565b6000819050919050565b612ecd81612eba565b8114612ed857600080fd5b50565b600081359050612eea81612ec4565b92915050565b60008060408385031215612f0757612f06612e74565b5b6000612f1585828601612ea5565b9250506020612f2685828601612edb565b9150509250929050565b612f3981612e7e565b82525050565b6000602082019050612f546000830184612f30565b92915050565b600080600060608486031215612f7357612f72612e74565b5b6000612f8186828701612ea5565b9350506020612f9286828701612ea5565b9250506040612fa386828701612ea5565b9150509250925092565b60008115159050919050565b612fc281612fad565b82525050565b6000602082019050612fdd6000830184612fb9565b92915050565b600060208284031215612ff957612ff8612e74565b5b600061300784828501612ea5565b91505092915050565b600081519050919050565b600082825260208201905092915050565b60005b8381101561304a57808201518184015260208101905061302f565b83811115613059576000848401525b50505050565b6000601f19601f8301169050919050565b600061307b82613010565b613085818561301b565b935061309581856020860161302c565b61309e8161305f565b840191505092915050565b600073ffffffffffffffffffffffffffffffffffffffff82169050919050565b60006130d4826130a9565b9050919050565b6130e4816130c9565b82525050565b600060608201905081810360008301526131048186613070565b905061311360208301856130db565b81810360408301526131258184613070565b9050949350505050565b600080fd5b600080fd5b7f4e487b7100000000000000000000000000000000000000000000000000000000600052604160045260246000fd5b6131718261305f565b810181811067ffffffffffffffff821117156131905761318f613139565b5b80604052505050565b60006131a3612e6a565b90506131af8282613168565b919050565b600067ffffffffffffffff8211156131cf576131ce613139565b5b6131d88261305f565b9050602081019050919050565b82818337600083830152505050565b6000613207613202846131b4565b613199565b90508281526020810184848401111561322357613222613134565b5b61322e8482856131e5565b509392505050565b600082601f83011261324b5761324a61312f565b5b813561325b8482602086016131f4565b91505092915050565b600080600080600060a086880312156132805761327f612e74565b5b600061328e88828901612ea5565b955050602086013567ffffffffffffffff8111156132af576132ae612e79565b5b6132bb88828901613236565b945050604086013567ffffffffffffffff8111156132dc576132db612e79565b5b6132e888828901613236565b935050606086013567ffffffffffffffff81111561330957613308612e79565b5b61331588828901613236565b925050608061332688828901612ea5565b9150509295509295909350565b6000806000806080858703121561334d5761334c612e74565b5b600061335b87828801612ea5565b945050602085013567ffffffffffffffff81111561337c5761337b612e79565b5b61338887828801613236565b935050604085013567ffffffffffffffff8111156133a9576133a8612e79565b5b6133b587828801613236565b925050606085013567ffffffffffffffff8111156133d6576133d5612e79565b5b6133e287828801613236565b91505092959194509250565b600060808201905081810360008301526134088187613070565b9050818103602083015261341c8186613070565b905081810360408301526134308185613070565b905061343f60608301846130db565b95945050505050565b600060808201905061345d6000830187612f30565b61346a6020830186612f30565b6134776040830185612f30565b61348460608301846130db565b95945050505050565b6000819050919050565b6134a08161348d565b81146134ab57600080fd5b50565b6000813590506134bd81613497565b92915050565b60008060008060008060c087890312156134e0576134df612e74565b5b60006134ee89828a01612ea5565b965050602087013567ffffffffffffffff81111561350f5761350e612e79565b5b61351b89828a01613236565b955050604087013567ffffffffffffffff81111561353c5761353b612e79565b5b61354889828a01613236565b945050606087013567ffffffffffffffff81111561356957613568612e79565b5b61357589828a01613236565b935050608061358689828a016134ae565b92505060a061359789828a01612ea5565b9150509295509295509295565b6000602082840312156135ba576135b9612e74565b5b600082013567ffffffffffffffff8111156135d8576135d7612e79565b5b6135e484828501613236565b91505092915050565b600060c08201905081810360008301526136078189613070565b9050818103602083015261361b8188613070565b9050818103604083015261362f8187613070565b905061363e6060830186612f30565b61364b60808301856130db565b61365860a0830184612f30565b979650505050505050565b600060c082019050818103600083015261367d8189613070565b905081810360208301526136918188613070565b905081810360408301526136a58187613070565b90506136b460608301866130db565b6136c16080830185612f30565b6136ce60a0830184612f30565b979650505050505050565b6136e28161348d565b82525050565b600060c08201905081810360008301526137028189613070565b905081810360208301526137168188613070565b9050818103604083015261372a8187613070565b905061373960608301866136d9565b6137466080830185612f30565b61375360a0830184612f30565b979650505050505050565b600081519050919050565b600082825260208201905092915050565b6000819050602082019050919050565b61379381612e7e565b82525050565b60006137a5838361378a565b60208301905092915050565b6000602082019050919050565b60006137c98261375e565b6137d38185613769565b93506137de8361377a565b8060005b8381101561380f5781516137f68882613799565b9750613801836137b1565b9250506001810190506137e2565b5085935050505092915050565b6000602082019050818103600083015261383681846137be565b905092915050565b613847816130c9565b811461385257600080fd5b50565b6000813590506138648161383e565b92915050565b6000602082840312156138805761387f612e74565b5b600061388e84828501613855565b91505092915050565b6000610100820190506138ad600083018b612f30565b81810360208301526138bf818a613070565b905081810360408301526138d38189613070565b905081810360608301526138e78188613070565b90506138f660808301876136d9565b61390360a0830186612f30565b61391060c08301856130db565b61391d60e0830184612f30565b9998505050505050505050565b600060808201905061393f6000830187612f30565b61394c6020830186612f30565b61395960408301856130db565b6139666060830184612f30565b95945050505050565b6000806000806080858703121561398957613988612e74565b5b600085013567ffffffffffffffff8111156139a7576139a6612e79565b5b6139b387828801613236565b945050602085013567ffffffffffffffff8111156139d4576139d3612e79565b5b6139e087828801613236565b93505060406139f187828801613855565b925050606085013567ffffffffffffffff811115613a1257613a11612e79565b5b613a1e87828801613236565b91505092959194509250565b50565b6000613a3a60008361301b565b9150613a4582613a2a565b600082019050919050565b60006020820190508181036000830152613a6981613a2d565b9050919050565b7f4e487b7100000000000000000000000000000000000000000000000000000000600052602260045260246000fd5b60006002820490506001821680613ab757607f821691505b602082108103613aca57613ac9613a70565b5b50919050565b7f4e487b7100000000000000000000000000000000000000000000000000000000600052601160045260246000fd5b6000613b0a82612e7e565b915063ffffffff8203613b2057613b1f613ad0565b5b600182019050919050565b600081905092915050565b6000613b4182613010565b613b4b8185613b2b565b9350613b5b81856020860161302c565b80840191505092915050565b6000613b738284613b36565b915081905092915050565b60008190508160005260206000209050919050565b60008154613ba081613a9f565b613baa8186613b2b565b94506001821660008114613bc55760018114613bd657613c09565b60ff19831686528186019350613c09565b613bdf85613b7e565b60005b83811015613c0157815481890152600182019150602081019050613be2565b838801955050505b50505092915050565b6000613c1e8284613b93565b915081905092915050565b7f5175616c697479207265706f727420616c726561647920616464656420666f7260008201527f2070726f64756374000000000000000000000000000000000000000000000000602082015250565b6000613c8560288361301b565b9150613c9082613c29565b604082019050919050565b60006020820190508181036000830152613cb481613c78565b9050919050565b7f4e6f6e2d61646d696e2063616e6e6f7420616464207061727469636970616e7460008201527f7300000000000000000000000000000000000000000000000000000000000000602082015250565b6000613d1760218361301b565b9150613d2282613cbb565b604082019050919050565b60006020820190508181036000830152613d4681613d0a565b9050919050565b7f41646d696e20697320616c726561647920736574000000000000000000000000600082015250565b6000613d8360148361301b565b9150613d8e82613d4d565b602082019050919050565b60006020820190508181036000830152613db281613d76565b905091905056fea26469706673582212204da6c34ae302c713562a5f0c715b7b226ac48f030f31c2bfc2db33605121d16364736f6c634300080d0033",
  "immutableReferences": {},
  "source": "pragma solidity ^0.8.13;\n\ncontract firstSeed {\n    bool public adminSet = false;\n    uint32 public product_id = 0;   // Product ID\n    uint32 public participant_id = 0;   // Participant ID\n    uint32 public owner_id = 0;   // Ownership ID\n    uint32 public quality_id = 0; // Quality ID\n\n    struct product {\n        string seedName;\n        string seedType;\n        string serialNumber;\n        address productOwner;\n        uint32 cost;\n        uint32 supplyTimeStamp;\n    }\n\n    mapping(uint32 => product) public products;\n    mapping(string => uint32) public serialNumberToProduct;\n\n    struct quality {\n        uint32 productId;\n        string color;\n        string weight;\n        string description;\n        bytes32 productHash;            // Hash of product secret shared inside product packaging\n        uint32 productAnalyserId;\n        address productAnalyserAddress;\n        uint32 qaTimeStamp;\n    }\n\n    mapping(uint32 => quality) public qualityChecks;\n    mapping(uint32 => uint32) public productToQuality;\n\n    struct participant {\n        string userName;\n        string password;        // Fix this: Storing password on the blockchain is a bad idea!!\n        string participantType;\n        address participantAddress;\n    }\n    mapping(uint32 => participant) public participants;\n    mapping(address => uint32) public addressToParticipants;\n\n    struct ownership {\n        uint32 productId;\n        uint32 ownerId;\n        uint32 trxTimeStamp;\n        address productOwner;\n    }\n    mapping(uint32 => ownership) public ownerships; // ownerships by ownership ID (owner_id)\n    mapping(uint32 => uint32[]) public productTrack;  // ownerships by Product ID (product_id) / Movement track for a product\n\n    event TransferOwnership(uint32 productId);\n\n    modifier onlyAdmin() {\n         require(!adminSet || (keccak256(abi.encodePacked(participants[addressToParticipants[msg.sender]].participantType)) == keccak256(\"admin\")), \"Non-admin cannot add participants\");\n         _;\n    }\n\n    function addParticipant(string memory _name, string memory _pass, address _pAdd, string memory _pType) onlyAdmin() public returns (uint32){\n        if (keccak256(abi.encodePacked(_pType)) != keccak256(\"admin\") && adminSet)\n        {\n            // Add a normal participant.\n            uint32 userId = participant_id++;\n            participants[userId].userName = _name;\n            participants[userId].password = _pass;\n            participants[userId].participantAddress = _pAdd;\n            participants[userId].participantType = _pType;\n\n            return userId;\n        }\n        else if (keccak256(abi.encodePacked(_pType)) == keccak256(\"admin\"))\n        {\n            if (adminSet)\n            {\n                revert(\"Admin is already set\");\n            }\n            else\n            {\n                // Add admin user. Needs to be done at the launch of contract to ensure \n                // monopolisitic admin.\n                adminSet = true;\n                uint32 userId = participant_id++;\n                participants[userId].userName = _name;\n                participants[userId].password = _pass;\n                participants[userId].participantAddress = _pAdd;\n                participants[userId].participantType = _pType;\n\n                return userId;\n            }\n        }\n    }\n\n    function getParticipant(uint32 _participant_id) public view returns (string memory,address,string memory) {\n        return (participants[_participant_id].userName,\n                participants[_participant_id].participantAddress,\n                participants[_participant_id].participantType);\n    }\n\n    function addProduct(uint32 _ownerId,\n                        string memory _seedName,\n                        string memory _seedType,\n                        string memory _serialNumber,\n                        uint32 _productCost) public returns (uint32) {\n        if(keccak256(abi.encodePacked(participants[_ownerId].participantType)) == keccak256(\"Supplier\")) {\n            uint32 productId = product_id++;\n\n            products[productId].seedName = _seedName;\n            products[productId].seedType = _seedType;\n            products[productId].serialNumber = _serialNumber;\n            products[productId].cost = _productCost;\n            products[productId].productOwner = participants[_ownerId].participantAddress;\n            products[productId].supplyTimeStamp = uint32(block.timestamp);\n\n            return productId;\n        }\n\n       return 0;\n    }\n\n    function addQualityReport(uint32 _productId,\n                              string memory _color,\n                              string memory _weight,\n                              string memory _description,\n                              bytes32 _productHash,\n                              uint32 _productAnalyserId) public returns (uint32) {\n        if(keccak256(abi.encodePacked(participants[_productAnalyserId].participantType)) == keccak256(\"Quality-Analyser\")) {\n            require( qualityChecks[productToQuality[_productId]].qaTimeStamp != 0, \"Quality report already added for product\");\n            uint32 qualityId = quality_id++;\n\n            qualityChecks[qualityId].productId = _productId;\n            qualityChecks[qualityId].color = _color;\n            qualityChecks[qualityId].weight = _weight;\n            qualityChecks[qualityId].description = _description;\n            qualityChecks[qualityId].productHash = _productHash;\n            qualityChecks[qualityId].productAnalyserId = _productAnalyserId;\n            qualityChecks[qualityId].productAnalyserAddress = participants[_productAnalyserId].participantAddress;\n            qualityChecks[qualityId].qaTimeStamp = uint32(block.timestamp);\n\n            productToQuality[_productId] = qualityId;\n\n            return qualityId;\n        }\n\n       return 0;\n    }\n\n    function getQualityReport(uint32 _productId) public view returns (string memory,string memory,string memory,bytes32,uint32,uint32) {\n        quality memory report = qualityChecks[productToQuality[_productId]];\n        return (report.color,\n                report.weight,\n                report.description,\n                report.productHash,\n                report.productAnalyserId,\n                report.qaTimeStamp);\n    }\n\n    modifier onlyOwner(uint32 _productId) {\n         require(msg.sender == products[_productId].productOwner,\"\");\n         _;\n\n    }\n\n    function getProduct(uint32 _productId) public view returns (string memory,string memory,string memory,uint32,address,uint32){\n        return (products[_productId].seedName,\n                products[_productId].seedType,\n                products[_productId].serialNumber,\n                products[_productId].cost,\n                products[_productId].productOwner,\n                products[_productId].supplyTimeStamp);\n    }\n\n    function newOwner(uint32 _user1Id,uint32 _user2Id, uint32 _prodId) onlyOwner(_prodId) public returns (bool) {\n        participant memory p1 = participants[_user1Id];\n        participant memory p2 = participants[_user2Id];\n        uint32 ownership_id = owner_id++;\n\n        if(keccak256(abi.encodePacked(p1.participantType)) == keccak256(\"Supplier\")\n            && keccak256(abi.encodePacked(p2.participantType))==keccak256(\"Quality-Analyser\")){\n            \n        }\n        else if(keccak256(abi.encodePacked(p1.participantType)) == keccak256(\"Quality-Analyser\")\n            && keccak256(abi.encodePacked(p2.participantType))==keccak256(\"Distributor\")){\n            \n        }\n        else if(keccak256(abi.encodePacked(p1.participantType)) == keccak256(\"Distributor\") && keccak256(abi.encodePacked(p2.participantType))==keccak256(\"Distributor\")){\n            \n        }\n        else if(keccak256(abi.encodePacked(p1.participantType)) == keccak256(\"Distributor\") && keccak256(abi.encodePacked(p2.participantType))==keccak256(\"Consumer\")){\n            \n        }\n        else{\n            return (false);\n        }\n        ownerships[ownership_id].productId = _prodId;\n        ownerships[ownership_id].productOwner = p2.participantAddress;\n        ownerships[ownership_id].ownerId = _user2Id;\n        ownerships[ownership_id].trxTimeStamp = uint32(block.timestamp);\n        products[_prodId].productOwner = p2.participantAddress;\n        productTrack[_prodId].push(ownership_id);\n        emit TransferOwnership(_prodId);\n\n        return (true);\n    }\n\n   function getProvenance(uint32 _prodId) external view returns (uint32[] memory) {\n\n       return productTrack[_prodId];\n    }\n\n    function getOwnership(uint32 _regId)  public view returns (uint32,uint32,address,uint32) {\n\n        ownership memory r = ownerships[_regId];\n\n         return (r.productId,r.ownerId,r.productOwner,r.trxTimeStamp);\n    }\n\n    function authenticateParticipant(uint32 _uid,\n                                    string memory _uname,\n                                    string memory _pass,\n                                    string memory _utype) public view returns (bool){\n        if(keccak256(abi.encodePacked(participants[_uid].participantType)) == keccak256(abi.encodePacked(_utype))) {\n            if(keccak256(abi.encodePacked(participants[_uid].userName)) == keccak256(abi.encodePacked(_uname))) {\n                if(keccak256(abi.encodePacked(participants[_uid].password)) == keccak256(abi.encodePacked(_pass))) {\n                    return (true);\n                }\n            }\n        }\n\n        return (false);\n    }\n}",
  "sourcePath": "/Users/mac/Jan-Jun-22/ethernals/workspace/FirstSeed/contracts/SeedChain.sol",
  "compiler": {
    "name": "solc",
    "version": "0.8.13+commit.abaa5c0e.Emscripten.clang"
  },
  "schemaVersion": "3.4.6",
  "updatedAt": "2022-04-03T13:28:01.974Z",
  "devdoc": {
    "kind": "dev",
    "methods": {},
    "version": 1
  },
  "userdoc": {
    "kind": "user",
    "methods": {},
    "version": 1
  }
}