{
  "contractName": "SeedChain",
  "abi": [
    {
      "anonymous": false,
      "inputs": [
        {
          "indexed": false,
          "internalType": "uint32",
          "name": "productId",
          "type": "uint32"
        }
      ],
      "name": "TransferOwnership",
      "type": "event"
    },
    {
      "inputs": [
        {
          "internalType": "address",
          "name": "",
          "type": "address"
        }
      ],
      "name": "addressToParticipants",
      "outputs": [
        {
          "internalType": "uint32",
          "name": "",
          "type": "uint32"
        }
      ],
      "stateMutability": "view",
      "type": "function",
      "constant": true
    },
    {
      "inputs": [],
      "name": "adminSet",
      "outputs": [
        {
          "internalType": "bool",
          "name": "",
          "type": "bool"
        }
      ],
      "stateMutability": "view",
      "type": "function",
      "constant": true
    },
    {
      "inputs": [],
      "name": "owner_id",
      "outputs": [
        {
          "internalType": "uint32",
          "name": "",
          "type": "uint32"
        }
      ],
      "stateMutability": "view",
      "type": "function",
      "constant": true
    },
    {
      "inputs": [
        {
          "internalType": "uint32",
          "name": "",
          "type": "uint32"
        }
      ],
      "name": "ownerships",
      "outputs": [
        {
          "internalType": "uint32",
          "name": "productId",
          "type": "uint32"
        },
        {
          "internalType": "uint32",
          "name": "ownerId",
          "type": "uint32"
        },
        {
          "internalType": "uint32",
          "name": "trxTimeStamp",
          "type": "uint32"
        },
        {
          "internalType": "address",
          "name": "productOwner",
          "type": "address"
        }
      ],
      "stateMutability": "view",
      "type": "function",
      "constant": true
    },
    {
      "inputs": [],
      "name": "participant_id",
      "outputs": [
        {
          "internalType": "uint32",
          "name": "",
          "type": "uint32"
        }
      ],
      "stateMutability": "view",
      "type": "function",
      "constant": true
    },
    {
      "inputs": [
        {
          "internalType": "uint32",
          "name": "",
          "type": "uint32"
        }
      ],
      "name": "participants",
      "outputs": [
        {
          "internalType": "string",
          "name": "userName",
          "type": "string"
        },
        {
          "internalType": "string",
          "name": "password",
          "type": "string"
        },
        {
          "internalType": "string",
          "name": "participantType",
          "type": "string"
        },
        {
          "internalType": "address",
          "name": "participantAddress",
          "type": "address"
        },
        {
          "internalType": "uint32",
          "name": "entryTimeStamp",
          "type": "uint32"
        }
      ],
      "stateMutability": "view",
      "type": "function",
      "constant": true
    },
    {
      "inputs": [
        {
          "internalType": "uint32",
          "name": "",
          "type": "uint32"
        }
      ],
      "name": "productToQuality",
      "outputs": [
        {
          "internalType": "uint32",
          "name": "",
          "type": "uint32"
        }
      ],
      "stateMutability": "view",
      "type": "function",
      "constant": true
    },
    {
      "inputs": [
        {
          "internalType": "uint32",
          "name": "",
          "type": "uint32"
        },
        {
          "internalType": "uint256",
          "name": "",
          "type": "uint256"
        }
      ],
      "name": "productTrack",
      "outputs": [
        {
          "internalType": "uint32",
          "name": "",
          "type": "uint32"
        }
      ],
      "stateMutability": "view",
      "type": "function",
      "constant": true
    },
    {
      "inputs": [],
      "name": "product_id",
      "outputs": [
        {
          "internalType": "uint32",
          "name": "",
          "type": "uint32"
        }
      ],
      "stateMutability": "view",
      "type": "function",
      "constant": true
    },
    {
      "inputs": [
        {
          "internalType": "uint32",
          "name": "",
          "type": "uint32"
        }
      ],
      "name": "products",
      "outputs": [
        {
          "internalType": "string",
          "name": "seedName",
          "type": "string"
        },
        {
          "internalType": "string",
          "name": "seedType",
          "type": "string"
        },
        {
          "internalType": "string",
          "name": "serialNumber",
          "type": "string"
        },
        {
          "internalType": "address",
          "name": "productOwner",
          "type": "address"
        },
        {
          "internalType": "uint32",
          "name": "cost",
          "type": "uint32"
        },
        {
          "internalType": "uint32",
          "name": "supplyTimeStamp",
          "type": "uint32"
        }
      ],
      "stateMutability": "view",
      "type": "function",
      "constant": true
    },
    {
      "inputs": [
        {
          "internalType": "uint32",
          "name": "",
          "type": "uint32"
        }
      ],
      "name": "qualityChecks",
      "outputs": [
        {
          "internalType": "uint32",
          "name": "productId",
          "type": "uint32"
        },
        {
          "internalType": "string",
          "name": "color",
          "type": "string"
        },
        {
          "internalType": "string",
          "name": "weight",
          "type": "string"
        },
        {
          "internalType": "string",
          "name": "description",
          "type": "string"
        },
        {
          "internalType": "bytes32",
          "name": "productHash",
          "type": "bytes32"
        },
        {
          "internalType": "uint32",
          "name": "productAnalyserId",
          "type": "uint32"
        },
        {
          "internalType": "address",
          "name": "productAnalyserAddress",
          "type": "address"
        },
        {
          "internalType": "uint32",
          "name": "qaTimeStamp",
          "type": "uint32"
        }
      ],
      "stateMutability": "view",
      "type": "function",
      "constant": true
    },
    {
      "inputs": [],
      "name": "quality_id",
      "outputs": [
        {
          "internalType": "uint32",
          "name": "",
          "type": "uint32"
        }
      ],
      "stateMutability": "view",
      "type": "function",
      "constant": true
    },
    {
      "inputs": [
        {
          "internalType": "string",
          "name": "",
          "type": "string"
        }
      ],
      "name": "serialNumberToProduct",
      "outputs": [
        {
          "internalType": "uint32",
          "name": "",
          "type": "uint32"
        }
      ],
      "stateMutability": "view",
      "type": "function",
      "constant": true
    },
    {
      "inputs": [
        {
          "internalType": "string",
          "name": "_name",
          "type": "string"
        },
        {
          "internalType": "string",
          "name": "_pass",
          "type": "string"
        },
        {
          "internalType": "address",
          "name": "_pAdd",
          "type": "address"
        },
        {
          "internalType": "string",
          "name": "_pType",
          "type": "string"
        }
      ],
      "name": "addParticipant",
      "outputs": [
        {
          "internalType": "uint32",
          "name": "",
          "type": "uint32"
        }
      ],
      "stateMutability": "nonpayable",
      "type": "function"
    },
    {
      "inputs": [
        {
          "internalType": "address",
          "name": "_participant_address",
          "type": "address"
        }
      ],
      "name": "getParticipant",
      "outputs": [
        {
          "internalType": "string",
          "name": "",
          "type": "string"
        },
        {
          "internalType": "address",
          "name": "",
          "type": "address"
        },
        {
          "internalType": "string",
          "name": "",
          "type": "string"
        }
      ],
      "stateMutability": "view",
      "type": "function",
      "constant": true
    },
    {
      "inputs": [
        {
          "internalType": "address",
          "name": "_ownerAddress",
          "type": "address"
        },
        {
          "internalType": "string",
          "name": "_seedName",
          "type": "string"
        },
        {
          "internalType": "string",
          "name": "_seedType",
          "type": "string"
        },
        {
          "internalType": "string",
          "name": "_serialNumber",
          "type": "string"
        },
        {
          "internalType": "uint32",
          "name": "_productCost",
          "type": "uint32"
        }
      ],
      "name": "addProduct",
      "outputs": [
        {
          "internalType": "uint32",
          "name": "",
          "type": "uint32"
        }
      ],
      "stateMutability": "nonpayable",
      "type": "function"
    },
    {
      "inputs": [
        {
          "internalType": "string",
          "name": "_serialNumber",
          "type": "string"
        },
        {
          "internalType": "string",
          "name": "_color",
          "type": "string"
        },
        {
          "internalType": "string",
          "name": "_weight",
          "type": "string"
        },
        {
          "internalType": "string",
          "name": "_description",
          "type": "string"
        },
        {
          "internalType": "bytes32",
          "name": "_productHash",
          "type": "bytes32"
        },
        {
          "internalType": "address",
          "name": "_productAnalyserAddress",
          "type": "address"
        }
      ],
      "name": "addQualityReport",
      "outputs": [
        {
          "internalType": "uint32",
          "name": "",
          "type": "uint32"
        }
      ],
      "stateMutability": "nonpayable",
      "type": "function"
    },
    {
      "inputs": [
        {
          "internalType": "string",
          "name": "_serialNumber",
          "type": "string"
        }
      ],
      "name": "getQualityReport",
      "outputs": [
        {
          "internalType": "string",
          "name": "",
          "type": "string"
        },
        {
          "internalType": "string",
          "name": "",
          "type": "string"
        },
        {
          "internalType": "string",
          "name": "",
          "type": "string"
        },
        {
          "internalType": "bytes32",
          "name": "",
          "type": "bytes32"
        },
        {
          "internalType": "uint32",
          "name": "",
          "type": "uint32"
        },
        {
          "internalType": "uint32",
          "name": "",
          "type": "uint32"
        }
      ],
      "stateMutability": "view",
      "type": "function",
      "constant": true
    },
    {
      "inputs": [
        {
          "internalType": "string",
          "name": "_serialNumber",
          "type": "string"
        }
      ],
      "name": "getProduct",
      "outputs": [
        {
          "internalType": "string",
          "name": "",
          "type": "string"
        },
        {
          "internalType": "string",
          "name": "",
          "type": "string"
        },
        {
          "internalType": "string",
          "name": "",
          "type": "string"
        },
        {
          "internalType": "uint32",
          "name": "",
          "type": "uint32"
        },
        {
          "internalType": "address",
          "name": "",
          "type": "address"
        },
        {
          "internalType": "uint32",
          "name": "",
          "type": "uint32"
        }
      ],
      "stateMutability": "view",
      "type": "function",
      "constant": true
    },
    {
      "inputs": [
        {
          "internalType": "address",
          "name": "_participant_address1",
          "type": "address"
        },
        {
          "internalType": "address",
          "name": "_participant_address2",
          "type": "address"
        },
        {
          "internalType": "string",
          "name": "_serialNumber",
          "type": "string"
        }
      ],
      "name": "newOwner",
      "outputs": [
        {
          "internalType": "bool",
          "name": "",
          "type": "bool"
        }
      ],
      "stateMutability": "nonpayable",
      "type": "function"
    },
    {
      "inputs": [
        {
          "internalType": "string",
          "name": "_serialNumber",
          "type": "string"
        }
      ],
      "name": "getProvenance",
      "outputs": [
        {
          "internalType": "uint32[]",
          "name": "",
          "type": "uint32[]"
        }
      ],
      "stateMutability": "view",
      "type": "function",
      "constant": true
    },
    {
      "inputs": [
        {
          "internalType": "uint32",
          "name": "_regId",
          "type": "uint32"
        }
      ],
      "name": "getOwnership",
      "outputs": [
        {
          "internalType": "uint32",
          "name": "",
          "type": "uint32"
        },
        {
          "internalType": "uint32",
          "name": "",
          "type": "uint32"
        },
        {
          "internalType": "address",
          "name": "",
          "type": "address"
        },
        {
          "internalType": "uint32",
          "name": "",
          "type": "uint32"
        }
      ],
      "stateMutability": "view",
      "type": "function",
      "constant": true
    },
    {
      "inputs": [
        {
          "internalType": "uint32",
          "name": "_uid",
          "type": "uint32"
        },
        {
          "internalType": "string",
          "name": "_uname",
          "type": "string"
        },
        {
          "internalType": "string",
          "name": "_pass",
          "type": "string"
        },
        {
          "internalType": "string",
          "name": "_utype",
          "type": "string"
        }
      ],
      "name": "authenticateParticipant",
      "outputs": [
        {
          "internalType": "bool",
          "name": "",
          "type": "bool"
        }
      ],
      "stateMutability": "view",
      "type": "function",
      "constant": true
    }
  ],
  "bytecode": "0x608060405260008060006101000a81548160ff02191690831515021790555060008060016101000a81548163ffffffff021916908363ffffffff16021790555060008060056101000a81548163ffffffff021916908363ffffffff16021790555060008060096101000a81548163ffffffff021916908363ffffffff160217905550600080600d6101000a81548163ffffffff021916908363ffffffff1602179055503480156100ae57600080fd5b506145fe806100be6000396000f3fe608060405234801561001057600080fd5b506004361061014d5760003560e01c806381e15610116100c3578063cd05b0421161007c578063cd05b04214610464578063da69496714610494578063df6d23f1146104cb578063eab0a479146104fe578063ebf43a7e1461051c578063fc2da9101461054c5761014d565b806381e156101461034e5780638f5ebf7114610381578063a498d8331461039f578063ab657d5a146103cf578063b386f5f0146103ff578063bf712fd61461042f5761014d565b806368111cce1161011557806368111cce146102305780637143059f14610265578063721b574314610297578063751eedd3146102c75780637d0a9ac9146102fc57806380710f20146103305761014d565b80631a074802146101525780631e0eea08146101825780632ebf7354146101b257806331ae3e29146101e257806357d20ff714610212575b600080fd5b61016c60048036038101906101679190613575565b61056a565b60405161017991906135c4565b60405180910390f35b61019c60048036038101906101979190613783565b6105b3565b6040516101a991906135c4565b60405180910390f35b6101cc60048036038101906101c79190613888565b61097d565b6040516101d991906135c4565b60405180910390f35b6101fc60048036038101906101f79190613985565b610e16565b60405161020991906135c4565b60405180910390f35b61021a610e39565b60405161022791906135c4565b60405180910390f35b61024a600480360381019061024591906139b2565b610e4f565b60405161025c96959493929190613a92565b60405180910390f35b61027f600480360381019061027a9190613b08565b611154565b60405161028e93929190613b35565b60405180910390f35b6102b160048036038101906102ac9190613b7a565b61135b565b6040516102be9190613c50565b60405180910390f35b6102e160048036038101906102dc91906139b2565b6114d1565b6040516102f396959493929190613c7a565b60405180910390f35b61031660048036038101906103119190613985565b611828565b604051610327959493929190613cf0565b60405180910390f35b610338611a26565b6040516103459190613c50565b60405180910390f35b61036860048036038101906103639190613985565b611a37565b6040516103789493929190613d58565b60405180910390f35b610389611ab7565b60405161039691906135c4565b60405180910390f35b6103b960048036038101906103b491906139b2565b611acd565b6040516103c691906135c4565b60405180910390f35b6103e960048036038101906103e49190613d9d565b611b06565b6040516103f69190613c50565b60405180910390f35b610419600480360381019061041491906139b2565b6126b2565b6040516104269190613eca565b60405180910390f35b61044960048036038101906104449190613985565b612789565b60405161045b96959493929190613eec565b60405180910390f35b61047e60048036038101906104799190613b08565b61299d565b60405161048b91906135c4565b60405180910390f35b6104ae60048036038101906104a99190613985565b6129c0565b6040516104c2989796959493929190613f62565b60405180910390f35b6104e560048036038101906104e09190613985565b612bf0565b6040516104f59493929190613ff5565b60405180910390f35b610506612d10565b60405161051391906135c4565b60405180910390f35b6105366004803603810190610531919061403a565b612d26565b60405161054391906135c4565b60405180910390f35b610554613436565b60405161056191906135c4565b60405180910390f35b6008602052816000526040600020818154811061058657600080fd5b9060005260206000209060089182820401919006600402915091509054906101000a900463ffffffff1681565b600080600660008873ffffffffffffffffffffffffffffffffffffffff1673ffffffffffffffffffffffffffffffffffffffff16815260200190815260200160002060009054906101000a900463ffffffff1690507f95329f0f598032755f454b63034035528a2f09e00bb3dde055a4f8e3f7b11683600560008363ffffffff1663ffffffff16815260200190815260200160002060020160405160200161065b91906141f4565b604051602081830303815290604052805190602001200361096e5760006001600060028760405161068c919061423c565b908152602001604051809103902060009054906101000a900463ffffffff1663ffffffff1663ffffffff16815260200190815260200160002060030160189054906101000a900463ffffffff1663ffffffff161461071f576040517f08c379a00000000000000000000000000000000000000000000000000000000081526004016107169061429f565b60405180910390fd5b600080600181819054906101000a900463ffffffff1661073e906142ee565b91906101000a81548163ffffffff021916908363ffffffff1602179055905086600160008363ffffffff1663ffffffff168152602001908152602001600020600001908051906020019061079392919061344c565b5085600160008363ffffffff1663ffffffff16815260200190815260200160002060010190805190602001906107ca92919061344c565b5084600160008363ffffffff1663ffffffff168152602001908152602001600020600201908051906020019061080192919061344c565b5083600160008363ffffffff1663ffffffff16815260200190815260200160002060030160146101000a81548163ffffffff021916908363ffffffff160217905550600560008363ffffffff1663ffffffff16815260200190815260200160002060030160009054906101000a900473ffffffffffffffffffffffffffffffffffffffff16600160008363ffffffff1663ffffffff16815260200190815260200160002060030160006101000a81548173ffffffffffffffffffffffffffffffffffffffff021916908373ffffffffffffffffffffffffffffffffffffffff16021790555042600160008363ffffffff1663ffffffff16815260200190815260200160002060030160186101000a81548163ffffffff021916908363ffffffff16021790555080600286604051610938919061423c565b908152602001604051809103902060006101000a81548163ffffffff021916908363ffffffff1602179055508092505050610974565b60009150505b95945050505050565b600080600660008473ffffffffffffffffffffffffffffffffffffffff1673ffffffffffffffffffffffffffffffffffffffff16815260200190815260200160002060009054906101000a900463ffffffff16905060006002896040516109e4919061423c565b908152602001604051809103902060009054906101000a900463ffffffff1690507fca10781ba6766e256cc640553e6469e56be04b867aa53f4d1f7ae4717abdf75e600560008463ffffffff1663ffffffff168152602001908152602001600020600201604051602001610a5891906141f4565b6040516020818303038152906040528051906020012003610e0557600060036000600460008563ffffffff1663ffffffff16815260200190815260200160002060009054906101000a900463ffffffff1663ffffffff1663ffffffff16815260200190815260200160002060050160189054906101000a900463ffffffff1663ffffffff1614610b1d576040517f08c379a0000000000000000000000000000000000000000000000000000000008152600401610b149061438c565b60405180910390fd5b600080600d81819054906101000a900463ffffffff16610b3c906142ee565b91906101000a81548163ffffffff021916908363ffffffff1602179055905081600360008363ffffffff1663ffffffff16815260200190815260200160002060000160006101000a81548163ffffffff021916908363ffffffff16021790555088600360008363ffffffff1663ffffffff1681526020019081526020016000206001019080519060200190610bd292919061344c565b5087600360008363ffffffff1663ffffffff1681526020019081526020016000206002019080519060200190610c0992919061344c565b5086600360008363ffffffff1663ffffffff1681526020019081526020016000206003019080519060200190610c4092919061344c565b5085600360008363ffffffff1663ffffffff1681526020019081526020016000206004018190555082600360008363ffffffff1663ffffffff16815260200190815260200160002060050160006101000a81548163ffffffff021916908363ffffffff160217905550600560008463ffffffff1663ffffffff16815260200190815260200160002060030160009054906101000a900473ffffffffffffffffffffffffffffffffffffffff16600360008363ffffffff1663ffffffff16815260200190815260200160002060050160046101000a81548173ffffffffffffffffffffffffffffffffffffffff021916908373ffffffffffffffffffffffffffffffffffffffff16021790555042600360008363ffffffff1663ffffffff16815260200190815260200160002060050160186101000a81548163ffffffff021916908363ffffffff16021790555080600460008463ffffffff1663ffffffff16815260200190815260200160002060006101000a81548163ffffffff021916908363ffffffff160217905550600460008363ffffffff1663ffffffff16815260200190815260200160002060009054906101000a900463ffffffff169350505050610e0c565b6000925050505b9695505050505050565b60046020528060005260406000206000915054906101000a900463ffffffff1681565b6000600d9054906101000a900463ffffffff1681565b6060806060600080600080600288604051610e6a919061423c565b908152602001604051809103902060009054906101000a900463ffffffff169050600160008263ffffffff1663ffffffff168152602001908152602001600020600001600160008363ffffffff1663ffffffff168152602001908152602001600020600101600160008463ffffffff1663ffffffff168152602001908152602001600020600201600160008563ffffffff1663ffffffff16815260200190815260200160002060030160149054906101000a900463ffffffff16600160008663ffffffff1663ffffffff16815260200190815260200160002060030160009054906101000a900473ffffffffffffffffffffffffffffffffffffffff16600160008763ffffffff1663ffffffff16815260200190815260200160002060030160189054906101000a900463ffffffff16858054610fa690614124565b80601f0160208091040260200160405190810160405280929190818152602001828054610fd290614124565b801561101f5780601f10610ff45761010080835404028352916020019161101f565b820191906000526020600020905b81548152906001019060200180831161100257829003601f168201915b5050505050955084805461103290614124565b80601f016020809104026020016040519081016040528092919081815260200182805461105e90614124565b80156110ab5780601f10611080576101008083540402835291602001916110ab565b820191906000526020600020905b81548152906001019060200180831161108e57829003601f168201915b505050505094508380546110be90614124565b80601f01602080910402602001604051908101604052809291908181526020018280546110ea90614124565b80156111375780601f1061110c57610100808354040283529160200191611137565b820191906000526020600020905b81548152906001019060200180831161111a57829003601f168201915b505050505093509650965096509650965096505091939550919395565b6060600060606000600660008673ffffffffffffffffffffffffffffffffffffffff1673ffffffffffffffffffffffffffffffffffffffff16815260200190815260200160002060009054906101000a900463ffffffff169050600560008263ffffffff1663ffffffff168152602001908152602001600020600001600560008363ffffffff1663ffffffff16815260200190815260200160002060030160009054906101000a900473ffffffffffffffffffffffffffffffffffffffff16600560008463ffffffff1663ffffffff16815260200190815260200160002060020182805461124190614124565b80601f016020809104026020016040519081016040528092919081815260200182805461126d90614124565b80156112ba5780601f1061128f576101008083540402835291602001916112ba565b820191906000526020600020905b81548152906001019060200180831161129d57829003601f168201915b505050505092508080546112cd90614124565b80601f01602080910402602001604051908101604052809291908181526020018280546112f990614124565b80156113465780601f1061131b57610100808354040283529160200191611346565b820191906000526020600020905b81548152906001019060200180831161132957829003601f168201915b50505050509050935093509350509193909250565b60008160405160200161136e919061423c565b60405160208183030381529060405280519060200120600560008763ffffffff1663ffffffff1681526020019081526020016000206002016040516020016113b691906141f4565b60405160208183030381529060405280519060200120036114c457836040516020016113e2919061423c565b60405160208183030381529060405280519060200120600560008763ffffffff1663ffffffff16815260200190815260200160002060000160405160200161142a91906141f4565b60405160208183030381529060405280519060200120036114c35782604051602001611456919061423c565b60405160208183030381529060405280519060200120600560008763ffffffff1663ffffffff16815260200190815260200160002060010160405160200161149e91906141f4565b60405160208183030381529060405280519060200120036114c257600190506114c9565b5b5b600090505b949350505050565b60608060606000806000806002886040516114ec919061423c565b908152602001604051809103902060009054906101000a900463ffffffff169050600060036000600460008563ffffffff1663ffffffff16815260200190815260200160002060009054906101000a900463ffffffff1663ffffffff1663ffffffff168152602001908152602001600020604051806101000160405290816000820160009054906101000a900463ffffffff1663ffffffff1663ffffffff16815260200160018201805461159f90614124565b80601f01602080910402602001604051908101604052809291908181526020018280546115cb90614124565b80156116185780601f106115ed57610100808354040283529160200191611618565b820191906000526020600020905b8154815290600101906020018083116115fb57829003601f168201915b5050505050815260200160028201805461163190614124565b80601f016020809104026020016040519081016040528092919081815260200182805461165d90614124565b80156116aa5780601f1061167f576101008083540402835291602001916116aa565b820191906000526020600020905b81548152906001019060200180831161168d57829003601f168201915b505050505081526020016003820180546116c390614124565b80601f01602080910402602001604051908101604052809291908181526020018280546116ef90614124565b801561173c5780601f106117115761010080835404028352916020019161173c565b820191906000526020600020905b81548152906001019060200180831161171f57829003601f168201915b50505050508152602001600482015481526020016005820160009054906101000a900463ffffffff1663ffffffff1663ffffffff1681526020016005820160049054906101000a900473ffffffffffffffffffffffffffffffffffffffff1673ffffffffffffffffffffffffffffffffffffffff1673ffffffffffffffffffffffffffffffffffffffff1681526020016005820160189054906101000a900463ffffffff1663ffffffff1663ffffffff1681525050905080602001518160400151826060015183608001518460a001518560e00151975097509750975097509750505091939550919395565b600560205280600052604060002060009150905080600001805461184b90614124565b80601f016020809104026020016040519081016040528092919081815260200182805461187790614124565b80156118c45780601f10611899576101008083540402835291602001916118c4565b820191906000526020600020905b8154815290600101906020018083116118a757829003601f168201915b5050505050908060010180546118d990614124565b80601f016020809104026020016040519081016040528092919081815260200182805461190590614124565b80156119525780601f1061192757610100808354040283529160200191611952565b820191906000526020600020905b81548152906001019060200180831161193557829003601f168201915b50505050509080600201805461196790614124565b80601f016020809104026020016040519081016040528092919081815260200182805461199390614124565b80156119e05780601f106119b5576101008083540402835291602001916119e0565b820191906000526020600020905b8154815290600101906020018083116119c357829003601f168201915b5050505050908060030160009054906101000a900473ffffffffffffffffffffffffffffffffffffffff16908060030160149054906101000a900463ffffffff16905085565b60008054906101000a900460ff1681565b60076020528060005260406000206000915090508060000160009054906101000a900463ffffffff16908060000160049054906101000a900463ffffffff16908060000160089054906101000a900463ffffffff169080600001600c9054906101000a900473ffffffffffffffffffffffffffffffffffffffff16905084565b600060099054906101000a900463ffffffff1681565b6002818051602081018201805184825260208301602085012081835280955050505050506000915054906101000a900463ffffffff1681565b6000816000600282604051611b1b919061423c565b908152602001604051809103902060009054906101000a900463ffffffff169050600160008263ffffffff1663ffffffff16815260200190815260200160002060030160009054906101000a900473ffffffffffffffffffffffffffffffffffffffff1673ffffffffffffffffffffffffffffffffffffffff163373ffffffffffffffffffffffffffffffffffffffff1614611bec576040517f08c379a0000000000000000000000000000000000000000000000000000000008152600401611be3906143d2565b60405180910390fd5b6000600660008873ffffffffffffffffffffffffffffffffffffffff1673ffffffffffffffffffffffffffffffffffffffff16815260200190815260200160002060009054906101000a900463ffffffff1690506000600660008873ffffffffffffffffffffffffffffffffffffffff1673ffffffffffffffffffffffffffffffffffffffff16815260200190815260200160002060009054906101000a900463ffffffff1690506000600287604051611ca6919061423c565b908152602001604051809103902060009054906101000a900463ffffffff1690506000600560008563ffffffff1663ffffffff1681526020019081526020016000206040518060a0016040529081600082018054611d0390614124565b80601f0160208091040260200160405190810160405280929190818152602001828054611d2f90614124565b8015611d7c5780601f10611d5157610100808354040283529160200191611d7c565b820191906000526020600020905b815481529060010190602001808311611d5f57829003601f168201915b50505050508152602001600182018054611d9590614124565b80601f0160208091040260200160405190810160405280929190818152602001828054611dc190614124565b8015611e0e5780601f10611de357610100808354040283529160200191611e0e565b820191906000526020600020905b815481529060010190602001808311611df157829003601f168201915b50505050508152602001600282018054611e2790614124565b80601f0160208091040260200160405190810160405280929190818152602001828054611e5390614124565b8015611ea05780601f10611e7557610100808354040283529160200191611ea0565b820191906000526020600020905b815481529060010190602001808311611e8357829003601f168201915b505050505081526020016003820160009054906101000a900473ffffffffffffffffffffffffffffffffffffffff1673ffffffffffffffffffffffffffffffffffffffff1673ffffffffffffffffffffffffffffffffffffffff1681526020016003820160149054906101000a900463ffffffff1663ffffffff1663ffffffff168152505090506000600560008563ffffffff1663ffffffff1681526020019081526020016000206040518060a0016040529081600082018054611f6390614124565b80601f0160208091040260200160405190810160405280929190818152602001828054611f8f90614124565b8015611fdc5780601f10611fb157610100808354040283529160200191611fdc565b820191906000526020600020905b815481529060010190602001808311611fbf57829003601f168201915b50505050508152602001600182018054611ff590614124565b80601f016020809104026020016040519081016040528092919081815260200182805461202190614124565b801561206e5780601f106120435761010080835404028352916020019161206e565b820191906000526020600020905b81548152906001019060200180831161205157829003601f168201915b5050505050815260200160028201805461208790614124565b80601f01602080910402602001604051908101604052809291908181526020018280546120b390614124565b80156121005780601f106120d557610100808354040283529160200191612100565b820191906000526020600020905b8154815290600101906020018083116120e357829003601f168201915b505050505081526020016003820160009054906101000a900473ffffffffffffffffffffffffffffffffffffffff1673ffffffffffffffffffffffffffffffffffffffff1673ffffffffffffffffffffffffffffffffffffffff1681526020016003820160149054906101000a900463ffffffff1663ffffffff1663ffffffff16815250509050600080600981819054906101000a900463ffffffff166121a6906142ee565b91906101000a81548163ffffffff021916908363ffffffff160217905590507f95329f0f598032755f454b63034035528a2f09e00bb3dde055a4f8e3f7b1168383604001516040516020016121fb919061423c565b6040516020818303038152906040528051906020012014801561226757507fca10781ba6766e256cc640553e6469e56be04b867aa53f4d1f7ae4717abdf75e826040015160405160200161224f919061423c565b60405160208183030381529060405280519060200120145b61246f577fca10781ba6766e256cc640553e6469e56be04b867aa53f4d1f7ae4717abdf75e83604001516040516020016122a1919061423c565b6040516020818303038152906040528051906020012014801561230d57507fa19d0db335544d3c3ec35c34b9b35a51bd4861f7162de07d5af409611794db0482604001516040516020016122f5919061423c565b60405160208183030381529060405280519060200120145b61246e577fa19d0db335544d3c3ec35c34b9b35a51bd4861f7162de07d5af409611794db048360400151604051602001612347919061423c565b604051602081830303815290604052805190602001201480156123b357507fa19d0db335544d3c3ec35c34b9b35a51bd4861f7162de07d5af409611794db04826040015160405160200161239b919061423c565b60405160208183030381529060405280519060200120145b61246d577fa19d0db335544d3c3ec35c34b9b35a51bd4861f7162de07d5af409611794db0483604001516040516020016123ed919061423c565b6040516020818303038152906040528051906020012014801561245957507fc0878b4b16a78e8085cba0ca02fc0924f1492924058d153153a3f286e0fd70ff8260400151604051602001612441919061423c565b60405160208183030381529060405280519060200120145b61246c57600098505050505050506126a9565b5b5b5b83600760008363ffffffff1663ffffffff16815260200190815260200160002060000160006101000a81548163ffffffff021916908363ffffffff1602179055508160600151600760008363ffffffff1663ffffffff168152602001908152602001600020600001600c6101000a81548173ffffffffffffffffffffffffffffffffffffffff021916908373ffffffffffffffffffffffffffffffffffffffff16021790555084600760008363ffffffff1663ffffffff16815260200190815260200160002060000160046101000a81548163ffffffff021916908363ffffffff16021790555042600760008363ffffffff1663ffffffff16815260200190815260200160002060000160086101000a81548163ffffffff021916908363ffffffff1602179055508160600151600160008663ffffffff1663ffffffff16815260200190815260200160002060030160006101000a81548173ffffffffffffffffffffffffffffffffffffffff021916908373ffffffffffffffffffffffffffffffffffffffff160217905550600860008563ffffffff1663ffffffff1681526020019081526020016000208190806001815401808255809150506001900390600052602060002090600891828204019190066004029091909190916101000a81548163ffffffff021916908363ffffffff1602179055507fa5470ac012c6e9dc500e62b1d3de0de58db49b3ab7cfebbfb126d9abd854199b8460405161269691906135c4565b60405180910390a1600198505050505050505b50509392505050565b606060006002836040516126c6919061423c565b908152602001604051809103902060009054906101000a900463ffffffff169050600860008263ffffffff1663ffffffff16815260200190815260200160002080548060200260200160405190810160405280929190818152602001828054801561277c57602002820191906000526020600020906000905b82829054906101000a900463ffffffff1663ffffffff168152602001906004019060208260030104928301926001038202915080841161273f5790505b5050505050915050919050565b60016020528060005260406000206000915090508060000180546127ac90614124565b80601f01602080910402602001604051908101604052809291908181526020018280546127d890614124565b80156128255780601f106127fa57610100808354040283529160200191612825565b820191906000526020600020905b81548152906001019060200180831161280857829003601f168201915b50505050509080600101805461283a90614124565b80601f016020809104026020016040519081016040528092919081815260200182805461286690614124565b80156128b35780601f10612888576101008083540402835291602001916128b3565b820191906000526020600020905b81548152906001019060200180831161289657829003601f168201915b5050505050908060020180546128c890614124565b80601f01602080910402602001604051908101604052809291908181526020018280546128f490614124565b80156129415780601f1061291657610100808354040283529160200191612941565b820191906000526020600020905b81548152906001019060200180831161292457829003601f168201915b5050505050908060030160009054906101000a900473ffffffffffffffffffffffffffffffffffffffff16908060030160149054906101000a900463ffffffff16908060030160189054906101000a900463ffffffff16905086565b60066020528060005260406000206000915054906101000a900463ffffffff1681565b60036020528060005260406000206000915090508060000160009054906101000a900463ffffffff16908060010180546129f990614124565b80601f0160208091040260200160405190810160405280929190818152602001828054612a2590614124565b8015612a725780601f10612a4757610100808354040283529160200191612a72565b820191906000526020600020905b815481529060010190602001808311612a5557829003601f168201915b505050505090806002018054612a8790614124565b80601f0160208091040260200160405190810160405280929190818152602001828054612ab390614124565b8015612b005780601f10612ad557610100808354040283529160200191612b00565b820191906000526020600020905b815481529060010190602001808311612ae357829003601f168201915b505050505090806003018054612b1590614124565b80601f0160208091040260200160405190810160405280929190818152602001828054612b4190614124565b8015612b8e5780601f10612b6357610100808354040283529160200191612b8e565b820191906000526020600020905b815481529060010190602001808311612b7157829003601f168201915b5050505050908060040154908060050160009054906101000a900463ffffffff16908060050160049054906101000a900473ffffffffffffffffffffffffffffffffffffffff16908060050160189054906101000a900463ffffffff16905088565b6000806000806000600760008763ffffffff1663ffffffff1681526020019081526020016000206040518060800160405290816000820160009054906101000a900463ffffffff1663ffffffff1663ffffffff1681526020016000820160049054906101000a900463ffffffff1663ffffffff1663ffffffff1681526020016000820160089054906101000a900463ffffffff1663ffffffff1663ffffffff16815260200160008201600c9054906101000a900473ffffffffffffffffffffffffffffffffffffffff1673ffffffffffffffffffffffffffffffffffffffff1673ffffffffffffffffffffffffffffffffffffffff1681525050905080600001518160200151826060015183604001519450945094509450509193509193565b600060019054906101000a900463ffffffff1681565b60008060009054906101000a900460ff161580612df857507ff23ec0bb4210edd5cba85afd05127efcd2fc6a781bfed49188da1081670b22d860056000600660003373ffffffffffffffffffffffffffffffffffffffff1673ffffffffffffffffffffffffffffffffffffffff16815260200190815260200160002060009054906101000a900463ffffffff1663ffffffff1663ffffffff168152602001908152602001600020600201604051602001612de091906141f4565b60405160208183030381529060405280519060200120145b612e37576040517f08c379a0000000000000000000000000000000000000000000000000000000008152600401612e2e90614464565b60405180910390fd5b7ff23ec0bb4210edd5cba85afd05127efcd2fc6a781bfed49188da1081670b22d882604051602001612e69919061423c565b6040516020818303038152906040528051906020012014158015612e97575060008054906101000a900460ff165b1561315257600060056000600660008773ffffffffffffffffffffffffffffffffffffffff1673ffffffffffffffffffffffffffffffffffffffff16815260200190815260200160002060009054906101000a900463ffffffff1663ffffffff1663ffffffff16815260200190815260200160002060030160149054906101000a900463ffffffff1663ffffffff1614612f66576040517f08c379a0000000000000000000000000000000000000000000000000000000008152600401612f5d906144d0565b60405180910390fd5b600080600581819054906101000a900463ffffffff16612f85906142ee565b91906101000a81548163ffffffff021916908363ffffffff1602179055905085600560008363ffffffff1663ffffffff1681526020019081526020016000206000019080519060200190612fda92919061344c565b5084600560008363ffffffff1663ffffffff168152602001908152602001600020600101908051906020019061301192919061344c565b5083600560008363ffffffff1663ffffffff16815260200190815260200160002060030160006101000a81548173ffffffffffffffffffffffffffffffffffffffff021916908373ffffffffffffffffffffffffffffffffffffffff16021790555082600560008363ffffffff1663ffffffff16815260200190815260200160002060020190805190602001906130a992919061344c565b5042600560008363ffffffff1663ffffffff16815260200190815260200160002060030160146101000a81548163ffffffff021916908363ffffffff16021790555080600660008673ffffffffffffffffffffffffffffffffffffffff1673ffffffffffffffffffffffffffffffffffffffff16815260200190815260200160002060006101000a81548163ffffffff021916908363ffffffff1602179055508091505061342e565b7ff23ec0bb4210edd5cba85afd05127efcd2fc6a781bfed49188da1081670b22d882604051602001613184919061423c565b60405160208183030381529060405280519060200120036133f35760008054906101000a900460ff16156131ed576040517f08c379a00000000000000000000000000000000000000000000000000000000081526004016131e49061453c565b60405180910390fd5b60016000806101000a81548160ff021916908315150217905550600080600581819054906101000a900463ffffffff16613226906142ee565b91906101000a81548163ffffffff021916908363ffffffff1602179055905085600560008363ffffffff1663ffffffff168152602001908152602001600020600001908051906020019061327b92919061344c565b5084600560008363ffffffff1663ffffffff16815260200190815260200160002060010190805190602001906132b292919061344c565b5083600560008363ffffffff1663ffffffff16815260200190815260200160002060030160006101000a81548173ffffffffffffffffffffffffffffffffffffffff021916908373ffffffffffffffffffffffffffffffffffffffff16021790555082600560008363ffffffff1663ffffffff168152602001908152602001600020600201908051906020019061334a92919061344c565b5042600560008363ffffffff1663ffffffff16815260200190815260200160002060030160146101000a81548163ffffffff021916908363ffffffff16021790555080600660008673ffffffffffffffffffffffffffffffffffffffff1673ffffffffffffffffffffffffffffffffffffffff16815260200190815260200160002060006101000a81548163ffffffff021916908363ffffffff1602179055508091505061342e565b6040517f08c379a0000000000000000000000000000000000000000000000000000000008152600401613425906145a8565b60405180910390fd5b949350505050565b600060059054906101000a900463ffffffff1681565b82805461345890614124565b90600052602060002090601f01602090048101928261347a57600085556134c1565b82601f1061349357805160ff19168380011785556134c1565b828001600101855582156134c1579182015b828111156134c05782518255916020019190600101906134a5565b5b5090506134ce91906134d2565b5090565b5b808211156134eb5760008160009055506001016134d3565b5090565b6000604051905090565b600080fd5b600080fd5b600063ffffffff82169050919050565b61351c81613503565b811461352757600080fd5b50565b60008135905061353981613513565b92915050565b6000819050919050565b6135528161353f565b811461355d57600080fd5b50565b60008135905061356f81613549565b92915050565b6000806040838503121561358c5761358b6134f9565b5b600061359a8582860161352a565b92505060206135ab85828601613560565b9150509250929050565b6135be81613503565b82525050565b60006020820190506135d960008301846135b5565b92915050565b600073ffffffffffffffffffffffffffffffffffffffff82169050919050565b600061360a826135df565b9050919050565b61361a816135ff565b811461362557600080fd5b50565b60008135905061363781613611565b92915050565b600080fd5b600080fd5b6000601f19601f8301169050919050565b7f4e487b7100000000000000000000000000000000000000000000000000000000600052604160045260246000fd5b61369082613647565b810181811067ffffffffffffffff821117156136af576136ae613658565b5b80604052505050565b60006136c26134ef565b90506136ce8282613687565b919050565b600067ffffffffffffffff8211156136ee576136ed613658565b5b6136f782613647565b9050602081019050919050565b82818337600083830152505050565b6000613726613721846136d3565b6136b8565b90508281526020810184848401111561374257613741613642565b5b61374d848285613704565b509392505050565b600082601f83011261376a5761376961363d565b5b813561377a848260208601613713565b91505092915050565b600080600080600060a0868803121561379f5761379e6134f9565b5b60006137ad88828901613628565b955050602086013567ffffffffffffffff8111156137ce576137cd6134fe565b5b6137da88828901613755565b945050604086013567ffffffffffffffff8111156137fb576137fa6134fe565b5b61380788828901613755565b935050606086013567ffffffffffffffff811115613828576138276134fe565b5b61383488828901613755565b92505060806138458882890161352a565b9150509295509295909350565b6000819050919050565b61386581613852565b811461387057600080fd5b50565b6000813590506138828161385c565b92915050565b60008060008060008060c087890312156138a5576138a46134f9565b5b600087013567ffffffffffffffff8111156138c3576138c26134fe565b5b6138cf89828a01613755565b965050602087013567ffffffffffffffff8111156138f0576138ef6134fe565b5b6138fc89828a01613755565b955050604087013567ffffffffffffffff81111561391d5761391c6134fe565b5b61392989828a01613755565b945050606087013567ffffffffffffffff81111561394a576139496134fe565b5b61395689828a01613755565b935050608061396789828a01613873565b92505060a061397889828a01613628565b9150509295509295509295565b60006020828403121561399b5761399a6134f9565b5b60006139a98482850161352a565b91505092915050565b6000602082840312156139c8576139c76134f9565b5b600082013567ffffffffffffffff8111156139e6576139e56134fe565b5b6139f284828501613755565b91505092915050565b600081519050919050565b600082825260208201905092915050565b60005b83811015613a35578082015181840152602081019050613a1a565b83811115613a44576000848401525b50505050565b6000613a55826139fb565b613a5f8185613a06565b9350613a6f818560208601613a17565b613a7881613647565b840191505092915050565b613a8c816135ff565b82525050565b600060c0820190508181036000830152613aac8189613a4a565b90508181036020830152613ac08188613a4a565b90508181036040830152613ad48187613a4a565b9050613ae360608301866135b5565b613af06080830185613a83565b613afd60a08301846135b5565b979650505050505050565b600060208284031215613b1e57613b1d6134f9565b5b6000613b2c84828501613628565b91505092915050565b60006060820190508181036000830152613b4f8186613a4a565b9050613b5e6020830185613a83565b8181036040830152613b708184613a4a565b9050949350505050565b60008060008060808587031215613b9457613b936134f9565b5b6000613ba28782880161352a565b945050602085013567ffffffffffffffff811115613bc357613bc26134fe565b5b613bcf87828801613755565b935050604085013567ffffffffffffffff811115613bf057613bef6134fe565b5b613bfc87828801613755565b925050606085013567ffffffffffffffff811115613c1d57613c1c6134fe565b5b613c2987828801613755565b91505092959194509250565b60008115159050919050565b613c4a81613c35565b82525050565b6000602082019050613c656000830184613c41565b92915050565b613c7481613852565b82525050565b600060c0820190508181036000830152613c948189613a4a565b90508181036020830152613ca88188613a4a565b90508181036040830152613cbc8187613a4a565b9050613ccb6060830186613c6b565b613cd860808301856135b5565b613ce560a08301846135b5565b979650505050505050565b600060a0820190508181036000830152613d0a8188613a4a565b90508181036020830152613d1e8187613a4a565b90508181036040830152613d328186613a4a565b9050613d416060830185613a83565b613d4e60808301846135b5565b9695505050505050565b6000608082019050613d6d60008301876135b5565b613d7a60208301866135b5565b613d8760408301856135b5565b613d946060830184613a83565b95945050505050565b600080600060608486031215613db657613db56134f9565b5b6000613dc486828701613628565b9350506020613dd586828701613628565b925050604084013567ffffffffffffffff811115613df657613df56134fe565b5b613e0286828701613755565b9150509250925092565b600081519050919050565b600082825260208201905092915050565b6000819050602082019050919050565b613e4181613503565b82525050565b6000613e538383613e38565b60208301905092915050565b6000602082019050919050565b6000613e7782613e0c565b613e818185613e17565b9350613e8c83613e28565b8060005b83811015613ebd578151613ea48882613e47565b9750613eaf83613e5f565b925050600181019050613e90565b5085935050505092915050565b60006020820190508181036000830152613ee48184613e6c565b905092915050565b600060c0820190508181036000830152613f068189613a4a565b90508181036020830152613f1a8188613a4a565b90508181036040830152613f2e8187613a4a565b9050613f3d6060830186613a83565b613f4a60808301856135b5565b613f5760a08301846135b5565b979650505050505050565b600061010082019050613f78600083018b6135b5565b8181036020830152613f8a818a613a4a565b90508181036040830152613f9e8189613a4a565b90508181036060830152613fb28188613a4a565b9050613fc16080830187613c6b565b613fce60a08301866135b5565b613fdb60c0830185613a83565b613fe860e08301846135b5565b9998505050505050505050565b600060808201905061400a60008301876135b5565b61401760208301866135b5565b6140246040830185613a83565b61403160608301846135b5565b95945050505050565b60008060008060808587031215614054576140536134f9565b5b600085013567ffffffffffffffff811115614072576140716134fe565b5b61407e87828801613755565b945050602085013567ffffffffffffffff81111561409f5761409e6134fe565b5b6140ab87828801613755565b93505060406140bc87828801613628565b925050606085013567ffffffffffffffff8111156140dd576140dc6134fe565b5b6140e987828801613755565b91505092959194509250565b7f4e487b7100000000000000000000000000000000000000000000000000000000600052602260045260246000fd5b6000600282049050600182168061413c57607f821691505b60208210810361414f5761414e6140f5565b5b50919050565b600081905092915050565b60008190508160005260206000209050919050565b6000815461418281614124565b61418c8186614155565b945060018216600081146141a757600181146141b8576141eb565b60ff198316865281860193506141eb565b6141c185614160565b60005b838110156141e3578154818901526001820191506020810190506141c4565b838801955050505b50505092915050565b60006142008284614175565b915081905092915050565b6000614216826139fb565b6142208185614155565b9350614230818560208601613a17565b80840191505092915050565b6000614248828461420b565b915081905092915050565b7f50726f6475637420616c72656164792061646465642e00000000000000000000600082015250565b6000614289601683613a06565b915061429482614253565b602082019050919050565b600060208201905081810360008301526142b88161427c565b9050919050565b7f4e487b7100000000000000000000000000000000000000000000000000000000600052601160045260246000fd5b60006142f982613503565b915063ffffffff820361430f5761430e6142bf565b5b600182019050919050565b7f5175616c697479207265706f727420616c726561647920616464656420666f7260008201527f2070726f64756374000000000000000000000000000000000000000000000000602082015250565b6000614376602883613a06565b91506143818261431a565b604082019050919050565b600060208201905081810360008301526143a581614369565b9050919050565b50565b60006143bc600083613a06565b91506143c7826143ac565b600082019050919050565b600060208201905081810360008301526143eb816143af565b9050919050565b7f4e6f6e2d61646d696e2063616e6e6f7420616464207061727469636970616e7460008201527f7300000000000000000000000000000000000000000000000000000000000000602082015250565b600061444e602183613a06565b9150614459826143f2565b604082019050919050565b6000602082019050818103600083015261447d81614441565b9050919050565b7f4475706c6963617465207061727469636970616e740000000000000000000000600082015250565b60006144ba601583613a06565b91506144c582614484565b602082019050919050565b600060208201905081810360008301526144e9816144ad565b9050919050565b7f41646d696e20697320616c726561647920736574000000000000000000000000600082015250565b6000614526601483613a06565b9150614531826144f0565b602082019050919050565b6000602082019050818103600083015261455581614519565b9050919050565b7f41646d696e206973206e6f742073657400000000000000000000000000000000600082015250565b6000614592601083613a06565b915061459d8261455c565b602082019050919050565b600060208201905081810360008301526145c181614585565b905091905056fea264697066735822122019423e19fcfb9397adc897812670af491509b924c5a9f3f3639eb11bfb7ea60d64736f6c634300080d0033",
  "immutableReferences": {},
  "source": "pragma solidity ^0.8.13;\n\ncontract SeedChain {\n    bool public adminSet = false;\n    uint32 public product_id = 0;   // Product ID\n    uint32 public participant_id = 0;   // Participant ID\n    uint32 public owner_id = 0;   // Ownership ID\n    uint32 public quality_id = 0; // Quality ID\n\n    struct product {\n        string seedName;\n        string seedType;\n        string serialNumber;\n        address productOwner;\n        uint32 cost;\n        uint32 supplyTimeStamp;\n    }\n\n    mapping(uint32 => product) public products;\n    mapping(string => uint32) public serialNumberToProduct;\n\n    struct quality {\n        uint32 productId;\n        string color;\n        string weight;\n        string description;\n        bytes32 productHash;            // Hash of product secret shared inside product packaging\n        uint32 productAnalyserId;\n        address productAnalyserAddress;\n        uint32 qaTimeStamp;\n    }\n\n    mapping(uint32 => quality) public qualityChecks;\n    mapping(uint32 => uint32) public productToQuality;\n\n    struct participant {\n        string userName;\n        string password;        // Fix this: Storing password on the blockchain is a bad idea!!\n        string participantType;\n        address participantAddress;\n        uint32 entryTimeStamp;\n    }\n    mapping(uint32 => participant) public participants;\n    mapping(address => uint32) public addressToParticipants;\n\n    struct ownership {\n        uint32 productId;\n        uint32 ownerId;\n        uint32 trxTimeStamp;\n        address productOwner;\n    }\n    mapping(uint32 => ownership) public ownerships; // ownerships by ownership ID (owner_id)\n    mapping(uint32 => uint32[]) public productTrack;  // ownerships by Product ID (product_id) / Movement track for a product\n\n    event TransferOwnership(uint32 productId);\n\n    modifier onlyAdmin() {\n         require(!adminSet || (keccak256(abi.encodePacked(participants[addressToParticipants[msg.sender]].participantType)) == keccak256(\"admin\")), \"Non-admin cannot add participants\");\n         _;\n    }\n\n    function addParticipant(string memory _name, string memory _pass, address _pAdd, string memory _pType) onlyAdmin() public returns (uint32){\n        if (keccak256(abi.encodePacked(_pType)) != keccak256(\"admin\") && adminSet)\n        {\n            // Add a normal participant.\n            // check duplicate\n            require(participants[addressToParticipants[_pAdd]].entryTimeStamp == 0, \"Duplicate participant\");\n            uint32 userId = ++participant_id;\n            participants[userId].userName = _name;\n            participants[userId].password = _pass;\n            participants[userId].participantAddress = _pAdd;\n            participants[userId].participantType = _pType;\n            participants[userId].entryTimeStamp = uint32(block.timestamp);\n            addressToParticipants[_pAdd] = userId;\n\n            return userId;\n        }\n        else if (keccak256(abi.encodePacked(_pType)) == keccak256(\"admin\"))\n        {\n            if (adminSet)\n            {\n                revert(\"Admin is already set\");\n            }\n            else\n            {\n                // Add admin user. Needs to be done at the launch of contract to ensure \n                // monopolisitic admin.\n                adminSet = true;\n                uint32 userId = ++participant_id;\n                participants[userId].userName = _name;\n                participants[userId].password = _pass;\n                participants[userId].participantAddress = _pAdd;\n                participants[userId].participantType = _pType;\n                participants[userId].entryTimeStamp = uint32(block.timestamp);\n                addressToParticipants[_pAdd] = userId;\n\n                return userId;\n            }\n        }\n        else\n        {\n            revert(\"Admin is not set\");\n        }\n    }\n\n    function getParticipant(address _participant_address) public view returns (string memory,address,string memory) {\n        uint32 _participant_id = addressToParticipants[_participant_address];\n        return (participants[_participant_id].userName,\n                participants[_participant_id].participantAddress,\n                participants[_participant_id].participantType);\n    }\n\n    function addProduct(address _ownerAddress,\n                        string memory _seedName,\n                        string memory _seedType,\n                        string memory _serialNumber,\n                        uint32 _productCost) public returns (uint32) {\n        uint32 _ownerId = addressToParticipants[_ownerAddress];\n        if(keccak256(abi.encodePacked(participants[_ownerId].participantType)) == keccak256(\"Producer\")) {\n            require( products[serialNumberToProduct[_serialNumber]].supplyTimeStamp == 0, \"Product already added.\");\n            uint32 productId = ++product_id;\n\n            products[productId].seedName = _seedName;\n            products[productId].seedType = _seedType;\n            products[productId].serialNumber = _serialNumber;\n            products[productId].cost = _productCost;\n            products[productId].productOwner = participants[_ownerId].participantAddress;\n            products[productId].supplyTimeStamp = uint32(block.timestamp);\n            serialNumberToProduct[_serialNumber] = productId;\n\n            return productId;\n        }\n\n       return 0;\n    }\n\n    function addQualityReport(string memory _serialNumber,\n                              string memory _color,\n                              string memory _weight,\n                              string memory _description,\n                              bytes32 _productHash,\n                              address _productAnalyserAddress) public returns (uint32) {\n        uint32 _productAnalyserId = addressToParticipants[_productAnalyserAddress];\n        uint32 _productId = serialNumberToProduct[_serialNumber];\n        if(keccak256(abi.encodePacked(participants[_productAnalyserId].participantType)) == keccak256(\"Quality-Analyser\")) {\n            require( qualityChecks[productToQuality[_productId]].qaTimeStamp == 0, \"Quality report already added for product\");\n            uint32 qualityId = ++quality_id;\n\n            qualityChecks[qualityId].productId = _productId;\n            qualityChecks[qualityId].color = _color;\n            qualityChecks[qualityId].weight = _weight;\n            qualityChecks[qualityId].description = _description;\n            qualityChecks[qualityId].productHash = _productHash;\n            qualityChecks[qualityId].productAnalyserId = _productAnalyserId;\n            qualityChecks[qualityId].productAnalyserAddress = participants[_productAnalyserId].participantAddress;\n            qualityChecks[qualityId].qaTimeStamp = uint32(block.timestamp);\n\n            productToQuality[_productId] = qualityId;\n\n            return productToQuality[_productId];\n        }\n\n       return 0;\n    }\n\n    function getQualityReport(string memory _serialNumber) public view returns (string memory,string memory,string memory,bytes32,uint32,uint32) {\n        uint32 _productId = serialNumberToProduct[_serialNumber];\n        quality memory report = qualityChecks[productToQuality[_productId]];\n        return (report.color,\n                report.weight,\n                report.description,\n                report.productHash,\n                report.productAnalyserId,\n                report.qaTimeStamp);\n    }\n\n    modifier onlyOwner(string memory _serialNumber) {\n        uint32 _productId = serialNumberToProduct[_serialNumber];\n         require(msg.sender == products[_productId].productOwner,\"\");\n         _;\n\n    }\n\n    function getProduct(string memory _serialNumber) public view returns (string memory,string memory,string memory,uint32,address,uint32){\n        uint32 _productId = serialNumberToProduct[_serialNumber];\n        return (products[_productId].seedName,\n                products[_productId].seedType,\n                products[_productId].serialNumber,\n                products[_productId].cost,\n                products[_productId].productOwner,\n                products[_productId].supplyTimeStamp);\n    }\n\n    function newOwner(address _participant_address1,address _participant_address2, string memory _serialNumber) onlyOwner(_serialNumber) public returns (bool) {\n        uint32 _user1Id = addressToParticipants[_participant_address1];\n        uint32 _user2Id = addressToParticipants[_participant_address2];\n        uint32 _prodId = serialNumberToProduct[_serialNumber];\n        participant memory p1 = participants[_user1Id];\n        participant memory p2 = participants[_user2Id];\n        uint32 ownership_id = ++owner_id;\n\n        if(keccak256(abi.encodePacked(p1.participantType)) == keccak256(\"Producer\")\n            && keccak256(abi.encodePacked(p2.participantType))==keccak256(\"Quality-Analyser\")){\n            \n        }\n        else if(keccak256(abi.encodePacked(p1.participantType)) == keccak256(\"Quality-Analyser\")\n            && keccak256(abi.encodePacked(p2.participantType))==keccak256(\"Distributor\")){\n            \n        }\n        else if(keccak256(abi.encodePacked(p1.participantType)) == keccak256(\"Distributor\") && keccak256(abi.encodePacked(p2.participantType))==keccak256(\"Distributor\")){\n            \n        }\n        else if(keccak256(abi.encodePacked(p1.participantType)) == keccak256(\"Distributor\") && keccak256(abi.encodePacked(p2.participantType))==keccak256(\"Consumer\")){\n            \n        }\n        else{\n            return (false);\n        }\n        ownerships[ownership_id].productId = _prodId;\n        ownerships[ownership_id].productOwner = p2.participantAddress;\n        ownerships[ownership_id].ownerId = _user2Id;\n        ownerships[ownership_id].trxTimeStamp = uint32(block.timestamp);\n        products[_prodId].productOwner = p2.participantAddress;\n        productTrack[_prodId].push(ownership_id);\n        emit TransferOwnership(_prodId);\n\n        return (true);\n    }\n\n   function getProvenance(string memory _serialNumber) external view returns (uint32[] memory) {\n       uint32 _prodId = serialNumberToProduct[_serialNumber];\n       return productTrack[_prodId];\n    }\n\n    function getOwnership(uint32 _regId)  public view returns (uint32,uint32,address,uint32) {\n\n        ownership memory r = ownerships[_regId];\n\n         return (r.productId,r.ownerId,r.productOwner,r.trxTimeStamp);\n    }\n\n    function authenticateParticipant(uint32 _uid,\n                                    string memory _uname,\n                                    string memory _pass,\n                                    string memory _utype) public view returns (bool){\n        if(keccak256(abi.encodePacked(participants[_uid].participantType)) == keccak256(abi.encodePacked(_utype))) {\n            if(keccak256(abi.encodePacked(participants[_uid].userName)) == keccak256(abi.encodePacked(_uname))) {\n                if(keccak256(abi.encodePacked(participants[_uid].password)) == keccak256(abi.encodePacked(_pass))) {\n                    return (true);\n                }\n            }\n        }\n\n        return (false);\n    }\n}",
  "sourcePath": "/Users/mac/Jan-Jun-22/ethernals/workspace/FirstSeed/contracts/SeedChain.sol",
  "compiler": {
    "name": "solc",
    "version": "0.8.13+commit.abaa5c0e.Emscripten.clang"
  },
  "schemaVersion": "3.4.6",
  "updatedAt": "2022-04-03T17:58:20.243Z",
  "networkType": "ethereum",
  "devdoc": {
    "kind": "dev",
    "methods": {},
    "version": 1
  },
  "userdoc": {
    "kind": "user",
    "methods": {},
    "version": 1
  }
}